{
  "contractName": "FlightSuretyData",
  "abi": [
    {
      "constant": true,
      "inputs": [],
      "name": "flightCount",
      "outputs": [
        {
          "name": "",
          "type": "uint256"
        }
      ],
      "payable": false,
      "stateMutability": "view",
      "type": "function"
    },
    {
      "constant": true,
      "inputs": [
        {
          "name": "",
          "type": "uint256"
        }
      ],
      "name": "insurancesById",
      "outputs": [
        {
          "name": "id",
          "type": "uint256"
        },
        {
          "name": "flightId",
          "type": "uint256"
        },
        {
          "name": "state",
          "type": "uint8"
        },
        {
          "name": "amountPaid",
          "type": "uint256"
        },
        {
          "name": "owner",
          "type": "address"
        }
      ],
      "payable": false,
      "stateMutability": "view",
      "type": "function"
    },
    {
      "constant": true,
      "inputs": [
        {
          "name": "",
          "type": "address"
        }
      ],
      "name": "airlines",
      "outputs": [
        {
          "name": "id",
          "type": "uint256"
        },
        {
          "name": "isVoter",
          "type": "bool"
        }
      ],
      "payable": false,
      "stateMutability": "view",
      "type": "function"
    },
    {
      "constant": true,
      "inputs": [],
      "name": "insuranceCount",
      "outputs": [
        {
          "name": "",
          "type": "uint256"
        }
      ],
      "payable": false,
      "stateMutability": "view",
      "type": "function"
    },
    {
      "constant": true,
      "inputs": [
        {
          "name": "",
          "type": "address"
        }
      ],
      "name": "creditedAmounts",
      "outputs": [
        {
          "name": "",
          "type": "uint256"
        }
      ],
      "payable": false,
      "stateMutability": "view",
      "type": "function"
    },
    {
      "constant": true,
      "inputs": [],
      "name": "airlinesCount",
      "outputs": [
        {
          "name": "",
          "type": "uint256"
        }
      ],
      "payable": false,
      "stateMutability": "view",
      "type": "function"
    },
    {
      "inputs": [],
      "payable": true,
      "stateMutability": "payable",
      "type": "constructor"
    },
    {
      "payable": true,
      "stateMutability": "payable",
      "type": "fallback"
    },
    {
      "anonymous": false,
      "inputs": [
        {
          "indexed": false,
          "name": "contractAddress",
          "type": "address"
        },
        {
          "indexed": false,
          "name": "amount",
          "type": "uint256"
        }
      ],
      "name": "FundsAdded",
      "type": "event"
    },
    {
      "anonymous": false,
      "inputs": [
        {
          "indexed": false,
          "name": "contractAddress",
          "type": "address"
        },
        {
          "indexed": false,
          "name": "isAuthorized",
          "type": "bool"
        }
      ],
      "name": "CallerIsAuthorizedUpdate",
      "type": "event"
    },
    {
      "anonymous": false,
      "inputs": [
        {
          "indexed": false,
          "name": "airlineAddress",
          "type": "address"
        }
      ],
      "name": "AirlineRegistered",
      "type": "event"
    },
    {
      "anonymous": false,
      "inputs": [
        {
          "indexed": false,
          "name": "airlineAddress",
          "type": "address"
        },
        {
          "indexed": false,
          "name": "isVoter",
          "type": "bool"
        }
      ],
      "name": "AirlineIsVoterUpdate",
      "type": "event"
    },
    {
      "anonymous": false,
      "inputs": [
        {
          "indexed": false,
          "name": "id",
          "type": "uint256"
        }
      ],
      "name": "FlightAvailableForInsurance",
      "type": "event"
    },
    {
      "anonymous": false,
      "inputs": [
        {
          "indexed": false,
          "name": "id",
          "type": "uint256"
        }
      ],
      "name": "FlightIsNotAvailableForInsurance",
      "type": "event"
    },
    {
      "anonymous": false,
      "inputs": [
        {
          "indexed": false,
          "name": "id",
          "type": "uint256"
        },
        {
          "indexed": false,
          "name": "statusCode",
          "type": "uint8"
        }
      ],
      "name": "FlightDepartureStatusCodeUpdated",
      "type": "event"
    },
    {
      "anonymous": false,
      "inputs": [
        {
          "indexed": false,
          "name": "id",
          "type": "uint256"
        }
      ],
      "name": "InsuranceActive",
      "type": "event"
    },
    {
      "anonymous": false,
      "inputs": [
        {
          "indexed": false,
          "name": "id",
          "type": "uint256"
        }
      ],
      "name": "InsuranceCredited",
      "type": "event"
    },
    {
      "anonymous": false,
      "inputs": [
        {
          "indexed": false,
          "name": "id",
          "type": "uint256"
        }
      ],
      "name": "InsuranceExpired",
      "type": "event"
    },
    {
      "anonymous": false,
      "inputs": [
        {
          "indexed": false,
          "name": "_address",
          "type": "address"
        },
        {
          "indexed": false,
          "name": "amountWithdrawn",
          "type": "uint256"
        }
      ],
      "name": "AmountWithdrawn",
      "type": "event"
    },
    {
      "constant": true,
      "inputs": [],
      "name": "getOperationalStatus",
      "outputs": [
        {
          "name": "",
          "type": "bool"
        }
      ],
      "payable": false,
      "stateMutability": "view",
      "type": "function"
    },
    {
      "constant": false,
      "inputs": [
        {
          "name": "mode",
          "type": "bool"
        }
      ],
      "name": "setOperationalStatus",
      "outputs": [],
      "payable": false,
      "stateMutability": "nonpayable",
      "type": "function"
    },
    {
      "constant": false,
      "inputs": [
        {
          "name": "_address",
          "type": "address"
        },
        {
          "name": "isAuthorized",
          "type": "bool"
        }
      ],
      "name": "setIsAuthorizedCaller",
      "outputs": [],
      "payable": false,
      "stateMutability": "nonpayable",
      "type": "function"
    },
    {
      "constant": true,
      "inputs": [
        {
          "name": "_address",
          "type": "address"
        }
      ],
      "name": "getIsAuthorizedCaller",
      "outputs": [
        {
          "name": "",
          "type": "bool"
        }
      ],
      "payable": false,
      "stateMutability": "view",
      "type": "function"
    },
    {
      "constant": false,
      "inputs": [
        {
          "name": "airlineAddress",
          "type": "address"
        },
        {
          "name": "isVoter",
          "type": "bool"
        }
      ],
      "name": "createAirline",
      "outputs": [],
      "payable": false,
      "stateMutability": "nonpayable",
      "type": "function"
    },
    {
      "constant": true,
      "inputs": [
        {
          "name": "_address",
          "type": "address"
        }
      ],
      "name": "getAirline",
      "outputs": [
        {
          "name": "airlineAddress",
          "type": "address"
        },
        {
          "name": "id",
          "type": "uint256"
        },
        {
          "name": "isVoter",
          "type": "bool"
        }
      ],
      "payable": false,
      "stateMutability": "view",
      "type": "function"
    },
    {
      "constant": true,
      "inputs": [],
      "name": "getAirlinesCount",
      "outputs": [
        {
          "name": "",
          "type": "uint256"
        }
      ],
      "payable": false,
      "stateMutability": "view",
      "type": "function"
    },
    {
      "constant": false,
      "inputs": [
        {
          "name": "_address",
          "type": "address"
        },
        {
          "name": "_isVoter",
          "type": "bool"
        }
      ],
      "name": "setAirlineIsVoter",
      "outputs": [],
      "payable": false,
      "stateMutability": "nonpayable",
      "type": "function"
    },
    {
      "constant": false,
      "inputs": [
        {
          "name": "_flight",
          "type": "string"
        },
        {
          "name": "_departureTimestamp",
          "type": "uint256"
        },
        {
          "name": "_airlineAddress",
          "type": "address"
        }
      ],
      "name": "createFlight",
      "outputs": [],
      "payable": false,
      "stateMutability": "nonpayable",
      "type": "function"
    },
    {
      "constant": true,
      "inputs": [
        {
          "name": "_id",
          "type": "uint256"
        }
      ],
      "name": "getFlight",
      "outputs": [
        {
          "name": "id",
          "type": "uint256"
        },
        {
          "name": "flight",
          "type": "string"
        },
        {
          "name": "key",
          "type": "bytes32"
        },
        {
          "name": "airlineAddress",
          "type": "address"
        },
        {
          "name": "state",
          "type": "string"
        },
        {
          "name": "departureTimestamp",
          "type": "uint256"
        },
        {
          "name": "departureStatusCode",
          "type": "uint8"
        },
        {
          "name": "updated",
          "type": "uint256"
        }
      ],
      "payable": false,
      "stateMutability": "view",
      "type": "function"
    },
    {
      "constant": true,
      "inputs": [
        {
          "name": "_key",
          "type": "bytes32"
        }
      ],
      "name": "getFlightIdByKey",
      "outputs": [
        {
          "name": "",
          "type": "uint256"
        }
      ],
      "payable": false,
      "stateMutability": "view",
      "type": "function"
    },
    {
      "constant": false,
      "inputs": [
        {
          "name": "_id",
          "type": "uint256"
        }
      ],
      "name": "setUnavailableForInsurance",
      "outputs": [],
      "payable": false,
      "stateMutability": "nonpayable",
      "type": "function"
    },
    {
      "constant": false,
      "inputs": [
        {
          "name": "_id",
          "type": "uint256"
        }
      ],
      "name": "setAvailableForInsurance",
      "outputs": [],
      "payable": false,
      "stateMutability": "nonpayable",
      "type": "function"
    },
    {
      "constant": false,
      "inputs": [
        {
          "name": "_id",
          "type": "uint256"
        },
        {
          "name": "_statusCode",
          "type": "uint8"
        }
      ],
      "name": "setDepartureStatusCode",
      "outputs": [],
      "payable": false,
      "stateMutability": "nonpayable",
      "type": "function"
    },
    {
      "constant": true,
      "inputs": [
        {
          "name": "airline",
          "type": "address"
        },
        {
          "name": "flight",
          "type": "string"
        },
        {
          "name": "timestamp",
          "type": "uint256"
        }
      ],
      "name": "createFlightKey",
      "outputs": [
        {
          "name": "",
          "type": "bytes32"
        }
      ],
      "payable": false,
      "stateMutability": "pure",
      "type": "function"
    },
    {
      "constant": false,
      "inputs": [
        {
          "name": "_flightId",
          "type": "uint256"
        },
        {
          "name": "_amountPaid",
          "type": "uint256"
        },
        {
          "name": "_owner",
          "type": "address"
        }
      ],
      "name": "createInsurance",
      "outputs": [],
      "payable": false,
      "stateMutability": "nonpayable",
      "type": "function"
    },
    {
      "constant": true,
      "inputs": [
        {
          "name": "_flightId",
          "type": "uint256"
        }
      ],
      "name": "getInsurancesByFlight",
      "outputs": [
        {
          "name": "",
          "type": "uint256[]"
        }
      ],
      "payable": false,
      "stateMutability": "view",
      "type": "function"
    },
    {
      "constant": true,
      "inputs": [
        {
          "name": "_address",
          "type": "address"
        }
      ],
      "name": "getInsurancesByPassenger",
      "outputs": [
        {
          "name": "",
          "type": "uint256[]"
        }
      ],
      "payable": false,
      "stateMutability": "view",
      "type": "function"
    },
    {
      "constant": true,
      "inputs": [
        {
          "name": "_id",
          "type": "uint256"
        }
      ],
      "name": "getInsurance",
      "outputs": [
        {
          "name": "id",
          "type": "uint256"
        },
        {
          "name": "flightId",
          "type": "uint256"
        },
        {
          "name": "state",
          "type": "string"
        },
        {
          "name": "amountPaid",
          "type": "uint256"
        },
        {
          "name": "owner",
          "type": "address"
        }
      ],
      "payable": false,
      "stateMutability": "view",
      "type": "function"
    },
    {
      "constant": false,
      "inputs": [
        {
          "name": "_id",
          "type": "uint256"
        },
        {
          "name": "_amountToCredit",
          "type": "uint256"
        }
      ],
      "name": "creditInsurance",
      "outputs": [],
      "payable": false,
      "stateMutability": "nonpayable",
      "type": "function"
    },
    {
      "constant": true,
      "inputs": [
        {
          "name": "_address",
          "type": "address"
        }
      ],
      "name": "getCreditedAmount",
      "outputs": [
        {
          "name": "amountCredited",
          "type": "uint256"
        }
      ],
      "payable": false,
      "stateMutability": "view",
      "type": "function"
    },
    {
      "constant": false,
      "inputs": [
        {
          "name": "_amountToWithdraw",
          "type": "uint256"
        },
        {
          "name": "_address",
          "type": "address"
        }
      ],
      "name": "withdrawCreditedAmount",
      "outputs": [],
      "payable": true,
      "stateMutability": "payable",
      "type": "function"
    }
  ],
  "bytecode": "0x6080604052336000806101000a81548173ffffffffffffffffffffffffffffffffffffffff021916908373ffffffffffffffffffffffffffffffffffffffff1602179055506001600060146101000a81548160ff02191690831515021790555060006002819055506000600481905550600060078190555060018060003073ffffffffffffffffffffffffffffffffffffffff1673ffffffffffffffffffffffffffffffffffffffff16815260200190815260200160002060006101000a81548160ff02191690831515021790555060018060008060009054906101000a900473ffffffffffffffffffffffffffffffffffffffff1673ffffffffffffffffffffffffffffffffffffffff1673ffffffffffffffffffffffffffffffffffffffff16815260200190815260200160002060006101000a81548160ff0219169083151502179055506200016c6001600254620002676401000000000262004627179091906401000000009004565b6002819055506040805190810160405280600254815260200160011515815250600360008060009054906101000a900473ffffffffffffffffffffffffffffffffffffffff1673ffffffffffffffffffffffffffffffffffffffff1673ffffffffffffffffffffffffffffffffffffffff1681526020019081526020016000206000820151816000015560208201518160010160006101000a81548160ff0219169083151502179055509050503073ffffffffffffffffffffffffffffffffffffffff166108fc349081150290604051600060405180830381858888f1935050505015801562000260573d6000803e3d6000fd5b5062000284565b600081830190508281101515156200027b57fe5b80905092915050565b61477e80620002946000396000f30060806040526004361061016a576000357c0100000000000000000000000000000000000000000000000000000000900463ffffffff16806305e931f4146101d75780630c982673146102025780631bc0956714610231578063281fc1f21461025c5780632bbe6d74146102f4578063362e830a1461034f578063386ae9ca146103e65780633a4396cb1461042057806341684769146105965780635122cb38146105f8578063521a6e9414610627578063675e7b04146106525780636caad080146106a95780636f81a69c146106e05780637066b1fd1461073757806372165d341461078657806374fdd27d146107cb57806381c99f0f1461087a57806385fae602146108a75780638f83df0414610995578063954a7df614610a175780639a70bd8014610a42578063a4c01f2a14610a6f578063cab2acf014610ac6578063dbf7ee9f14610b06578063e1de048914610b99578063e47a1c0814610c2e578063fe1de62014610c7d575b7f8fe10ae416f22f5e5220b0018a6c1d4ff534d6aa3a471f2a20cb7747fe63e5b93034604051808373ffffffffffffffffffffffffffffffffffffffff1673ffffffffffffffffffffffffffffffffffffffff1681526020018281526020019250505060405180910390a1005b3480156101e357600080fd5b506101ec610ccc565b6040518082815260200191505060405180910390f35b34801561020e57600080fd5b50610217610d87565b604051808215151515815260200191505060405180910390f35b34801561023d57600080fd5b50610246610d9d565b6040518082815260200191505060405180910390f35b34801561026857600080fd5b5061029d600480360381019080803573ffffffffffffffffffffffffffffffffffffffff169060200190929190505050610da3565b6040518080602001828103825283818151815260200191508051906020019060200280838360005b838110156102e05780820151818401526020810190506102c5565b505050509050019250505060405180910390f35b34801561030057600080fd5b50610335600480360381019080803573ffffffffffffffffffffffffffffffffffffffff169060200190929190505050610eeb565b604051808215151515815260200191505060405180910390f35b34801561035b57600080fd5b5061037a60048036038101908080359060200190929190505050610ff2565b6040518086815260200185815260200184600281111561039657fe5b60ff1681526020018381526020018273ffffffffffffffffffffffffffffffffffffffff1673ffffffffffffffffffffffffffffffffffffffff1681526020019550505050505060405180910390f35b3480156103f257600080fd5b5061041e60048036038101908080359060200190929190803560ff169060200190929190505050611055565b005b34801561042c57600080fd5b5061044b6004803603810190808035906020019092919050505061133d565b604051808981526020018060200188600019166000191681526020018773ffffffffffffffffffffffffffffffffffffffff1673ffffffffffffffffffffffffffffffffffffffff168152602001806020018681526020018560ff1660ff16815260200184815260200183810383528a818151815260200191508051906020019080838360005b838110156104ed5780820151818401526020810190506104d2565b50505050905090810190601f16801561051a5780820380516001836020036101000a031916815260200191505b50838103825287818151815260200191508051906020019080838360005b83811015610553578082015181840152602081019050610538565b50505050905090810190601f1680156105805780820380516001836020036101000a031916815260200191505b509a505050505050505050505060405180910390f35b3480156105a257600080fd5b506105d7600480360381019080803573ffffffffffffffffffffffffffffffffffffffff169060200190929190505050611711565b60405180838152602001821515151581526020019250505060405180910390f35b34801561060457600080fd5b50610625600480360381019080803515159060200190929190505050611742565b005b34801561063357600080fd5b5061063c61184b565b6040518082815260200191505060405180910390f35b34801561065e57600080fd5b50610693600480360381019080803573ffffffffffffffffffffffffffffffffffffffff169060200190929190505050611851565b6040518082815260200191505060405180910390f35b3480156106b557600080fd5b506106de6004803603810190808035906020019092919080359060200190929190505050611869565b005b3480156106ec57600080fd5b50610721600480360381019080803573ffffffffffffffffffffffffffffffffffffffff169060200190929190505050611d67565b6040518082815260200191505060405180910390f35b34801561074357600080fd5b50610784600480360381019080803573ffffffffffffffffffffffffffffffffffffffff169060200190929190803515159060200190929190505050611e61565b005b34801561079257600080fd5b506107b560048036038101908080356000191690602001909291905050506121af565b6040518082815260200191505060405180910390f35b3480156107d757600080fd5b5061085c600480360381019080803573ffffffffffffffffffffffffffffffffffffffff169060200190929190803590602001908201803590602001908080601f01602080910402602001604051908101604052809392919081815260200183838082843782019150505050505091929192908035906020019092919050505061236c565b60405180826000191660001916815260200191505060405180910390f35b34801561088657600080fd5b506108a560048036038101908080359060200190929190505050612496565b005b3480156108b357600080fd5b506108d260048036038101908080359060200190929190505050612778565b60405180868152602001858152602001806020018481526020018373ffffffffffffffffffffffffffffffffffffffff1673ffffffffffffffffffffffffffffffffffffffff168152602001828103825285818151815260200191508051906020019080838360005b8381101561095657808201518184015260208101905061093b565b50505050905090810190601f1680156109835780820380516001836020036101000a031916815260200191505b50965050505050505060405180910390f35b3480156109a157600080fd5b506109c060048036038101908080359060200190929190505050612aca565b6040518080602001828103825283818151815260200191508051906020019060200280838360005b83811015610a035780820151818401526020810190506109e8565b505050509050019250505060405180910390f35b348015610a2357600080fd5b50610a2c612c9c565b6040518082815260200191505060405180910390f35b348015610a4e57600080fd5b50610a6d60048036038101908080359060200190929190505050612ca2565b005b348015610a7b57600080fd5b50610ac46004803603810190808035906020019092919080359060200190929190803573ffffffffffffffffffffffffffffffffffffffff169060200190929190505050612f84565b005b610b0460048036038101908080359060200190929190803573ffffffffffffffffffffffffffffffffffffffff1690602001909291905050506134b3565b005b348015610b1257600080fd5b50610b97600480360381019080803590602001908201803590602001908080601f016020809104026020016040519081016040528093929190818152602001838380828437820191505050505050919291929080359060200190929190803573ffffffffffffffffffffffffffffffffffffffff169060200190929190505050613934565b005b348015610ba557600080fd5b50610bda600480360381019080803573ffffffffffffffffffffffffffffffffffffffff169060200190929190505050613e61565b604051808473ffffffffffffffffffffffffffffffffffffffff1673ffffffffffffffffffffffffffffffffffffffff16815260200183815260200182151515158152602001935050505060405180910390f35b348015610c3a57600080fd5b50610c7b600480360381019080803573ffffffffffffffffffffffffffffffffffffffff16906020019092919080351515906020019092919050505061409a565b005b348015610c8957600080fd5b50610cca600480360381019080803573ffffffffffffffffffffffffffffffffffffffff1690602001909291908035151590602001909291905050506143c0565b005b600060011515600060149054906101000a900460ff161515141515610d7f576040517f08c379a00000000000000000000000000000000000000000000000000000000081526004018080602001828103825260258152602001807f436f6e74726163742069732063757272656e746c79206e6f74206f706572617481526020017f696f6e616c00000000000000000000000000000000000000000000000000000081525060400191505060405180910390fd5b600254905090565b60008060149054906101000a900460ff16905090565b60045481565b606060011515600060149054906101000a900460ff161515141515610e56576040517f08c379a00000000000000000000000000000000000000000000000000000000081526004018080602001828103825260258152602001807f436f6e74726163742069732063757272656e746c79206e6f74206f706572617481526020017f696f6e616c00000000000000000000000000000000000000000000000000000081525060400191505060405180910390fd5b600960008373ffffffffffffffffffffffffffffffffffffffff1673ffffffffffffffffffffffffffffffffffffffff168152602001908152602001600020805480602002602001604051908101604052809291908181526020018280548015610edf57602002820191906000526020600020905b815481526020019060010190808311610ecb575b50505050509050919050565b600060011515600060149054906101000a900460ff161515141515610f9e576040517f08c379a00000000000000000000000000000000000000000000000000000000081526004018080602001828103825260258152602001807f436f6e74726163742069732063757272656e746c79206e6f74206f706572617481526020017f696f6e616c00000000000000000000000000000000000000000000000000000081525060400191505060405180910390fd5b600160008373ffffffffffffffffffffffffffffffffffffffff1673ffffffffffffffffffffffffffffffffffffffff16815260200190815260200160002060009054906101000a900460ff169050919050565b60086020528060005260406000206000915090508060000154908060010154908060020160009054906101000a900460ff16908060030154908060040160009054906101000a900473ffffffffffffffffffffffffffffffffffffffff16905085565b60011515600060149054906101000a900460ff161515141515611106576040517f08c379a00000000000000000000000000000000000000000000000000000000081526004018080602001828103825260258152602001807f436f6e74726163742069732063757272656e746c79206e6f74206f706572617481526020017f696f6e616c00000000000000000000000000000000000000000000000000000081525060400191505060405180910390fd5b60011515600160003373ffffffffffffffffffffffffffffffffffffffff1673ffffffffffffffffffffffffffffffffffffffff16815260200190815260200160002060009054906101000a900460ff1615151415156111f4576040517f08c379a00000000000000000000000000000000000000000000000000000000081526004018080602001828103825260338152602001807f5468652063616c6c6572206973206e6f7420617574686f72697a656420746f2081526020017f63616c6c2074686973206f7065726174696f6e0000000000000000000000000081525060400191505060405180910390fd5b81600060056000838152602001908152602001600020600001541115156112a9576040517f08c379a00000000000000000000000000000000000000000000000000000000081526004018080602001828103825260248152602001807f466c6967687420646f6573206e6f742065786973747320696e2074686520737981526020017f7374656d0000000000000000000000000000000000000000000000000000000081525060400191505060405180910390fd5b816005600085815260200190815260200160002060050160006101000a81548160ff021916908360ff1602179055504260056000858152602001908152602001600020600601819055507f98e5b482704cbfcf4bbe71e82d8dc6d226ef6416c8075710e2925785a1a832bd8383604051808381526020018260ff1660ff1681526020019250505060405180910390a1505050565b600060606000806060600080600060011515600060149054906101000a900460ff1615151415156113fc576040517f08c379a00000000000000000000000000000000000000000000000000000000081526004018080602001828103825260258152602001807f436f6e74726163742069732063757272656e746c79206e6f74206f706572617481526020017f696f6e616c00000000000000000000000000000000000000000000000000000081525060400191505060405180910390fd5b88600060056000838152602001908152602001600020600001541115156114b1576040517f08c379a00000000000000000000000000000000000000000000000000000000081526004018080602001828103825260248152602001807f466c6967687420646f6573206e6f742065786973747320696e2074686520737981526020017f7374656d0000000000000000000000000000000000000000000000000000000081525060400191505060405180910390fd5b600560008b8152602001908152602001600020600001549850600560008b81526020019081526020016000206001018054600181600116156101000203166002900480601f0160208091040260200160405190810160405280929190818152602001828054600181600116156101000203166002900480156115745780601f1061154957610100808354040283529160200191611574565b820191906000526020600020905b81548152906001019060200180831161155757829003601f168201915b50505050509750600560008b8152602001908152602001600020600201549650600560008b815260200190815260200160002060030160009054906101000a900473ffffffffffffffffffffffffffffffffffffffff169550600560008b815260200190815260200160002060050160009054906101000a900460ff169250600560008b8152602001908152602001600020600401549350600560008b81526020019081526020016000206006015491506000600560008c815260200190815260200160002060030160149054906101000a900460ff16600181111561165657fe5b1415611695576040805190810160405280601781526020017f417661696c61626c6520466f7220496e737572616e636500000000000000000081525094505b6001600560008c815260200190815260200160002060030160149054906101000a900460ff1660018111156116c657fe5b1415611705576040805190810160405280601981526020017f556e617661696c61626c6520466f7220496e737572616e63650000000000000081525094505b50919395975091939597565b60036020528060005260406000206000915090508060000154908060010160009054906101000a900460ff16905082565b6000809054906101000a900473ffffffffffffffffffffffffffffffffffffffff168073ffffffffffffffffffffffffffffffffffffffff163373ffffffffffffffffffffffffffffffffffffffff1614151561182d576040517f08c379a000000000000000000000000000000000000000000000000000000000815260040180806020018281038252602d8152602001807f43757272656e742063616c6c65722063616e206e6f7420696e766f6b6520746881526020017f6973206f7065726174696f6e2e0000000000000000000000000000000000000081525060400191505060405180910390fd5b81600060146101000a81548160ff0219169083151502179055505050565b60075481565b600b6020528060005260406000206000915090505481565b61187161465c565b60011515600060149054906101000a900460ff161515141515611922576040517f08c379a00000000000000000000000000000000000000000000000000000000081526004018080602001828103825260258152602001807f436f6e74726163742069732063757272656e746c79206e6f74206f706572617481526020017f696f6e616c00000000000000000000000000000000000000000000000000000081525060400191505060405180910390fd5b60011515600160003373ffffffffffffffffffffffffffffffffffffffff1673ffffffffffffffffffffffffffffffffffffffff16815260200190815260200160002060009054906101000a900460ff161515141515611a10576040517f08c379a00000000000000000000000000000000000000000000000000000000081526004018080602001828103825260338152602001807f5468652063616c6c6572206973206e6f7420617574686f72697a656420746f2081526020017f63616c6c2074686973206f7065726174696f6e0000000000000000000000000081525060400191505060405180910390fd5b8260006008600083815260200190815260200160002060000154111515611ac5576040517f08c379a00000000000000000000000000000000000000000000000000000000081526004018080602001828103825260278152602001807f496e737572616e636520646f6573206e6f742065786973747320696e2074686581526020017f2073797374656d0000000000000000000000000000000000000000000000000081525060400191505060405180910390fd5b8360006008600083815260200190815260200160002060020160009054906101000a900460ff166002811115611af757fe5b141515611b92576040517f08c379a00000000000000000000000000000000000000000000000000000000081526004018080602001828103825260378152602001807f54686520696e737572616e63652063616e206e6f74206265206372656469746581526020017f642c20622f63206974206973206e6f742041637469766500000000000000000081525060400191505060405180910390fd5b6008600086815260200190815260200160002060a0604051908101604052908160008201548152602001600182015481526020016002820160009054906101000a900460ff166002811115611be357fe5b6002811115611bee57fe5b8152602001600382015481526020016004820160009054906101000a900473ffffffffffffffffffffffffffffffffffffffff1673ffffffffffffffffffffffffffffffffffffffff1673ffffffffffffffffffffffffffffffffffffffff16815250509250611caa84600b6000866080015173ffffffffffffffffffffffffffffffffffffffff1673ffffffffffffffffffffffffffffffffffffffff1681526020019081526020016000205461462790919063ffffffff16565b600b6000856080015173ffffffffffffffffffffffffffffffffffffffff1673ffffffffffffffffffffffffffffffffffffffff1681526020019081526020016000208190555060026008600087815260200190815260200160002060020160006101000a81548160ff02191690836002811115611d2457fe5b02179055507fcc03281d6206532a96e9210e24f42286b340af6258f654420d91a435a19401ed856040518082815260200191505060405180910390a15050505050565b600060011515600060149054906101000a900460ff161515141515611e1a576040517f08c379a00000000000000000000000000000000000000000000000000000000081526004018080602001828103825260258152602001807f436f6e74726163742069732063757272656e746c79206e6f74206f706572617481526020017f696f6e616c00000000000000000000000000000000000000000000000000000081525060400191505060405180910390fd5b600b60008373ffffffffffffffffffffffffffffffffffffffff1673ffffffffffffffffffffffffffffffffffffffff168152602001908152602001600020549050919050565b60011515600060149054906101000a900460ff161515141515611f12576040517f08c379a00000000000000000000000000000000000000000000000000000000081526004018080602001828103825260258152602001807f436f6e74726163742069732063757272656e746c79206e6f74206f706572617481526020017f696f6e616c00000000000000000000000000000000000000000000000000000081525060400191505060405180910390fd5b60011515600160003373ffffffffffffffffffffffffffffffffffffffff1673ffffffffffffffffffffffffffffffffffffffff16815260200190815260200160002060009054906101000a900460ff161515141515612000576040517f08c379a00000000000000000000000000000000000000000000000000000000081526004018080602001828103825260338152602001807f5468652063616c6c6572206973206e6f7420617574686f72697a656420746f2081526020017f63616c6c2074686973206f7065726174696f6e0000000000000000000000000081525060400191505060405180910390fd5b816000600360008373ffffffffffffffffffffffffffffffffffffffff1673ffffffffffffffffffffffffffffffffffffffff168152602001908152602001600020600001541115156120e1576040517f08c379a000000000000000000000000000000000000000000000000000000000815260040180806020018281038252602a8152602001807f4169726c696e65207769746820676976656e206164647265737320646f65732081526020017f6e6f74206578697374730000000000000000000000000000000000000000000081525060400191505060405180910390fd5b81600360008573ffffffffffffffffffffffffffffffffffffffff1673ffffffffffffffffffffffffffffffffffffffff16815260200190815260200160002060010160006101000a81548160ff0219169083151502179055507f489162c3679745f4b5055836a9d01b42dcf8458f27211be28abb843e88e1cf698383604051808373ffffffffffffffffffffffffffffffffffffffff1673ffffffffffffffffffffffffffffffffffffffff168152602001821515151581526020019250505060405180910390a1505050565b600060011515600060149054906101000a900460ff161515141515612262576040517f08c379a00000000000000000000000000000000000000000000000000000000081526004018080602001828103825260258152602001807f436f6e74726163742069732063757272656e746c79206e6f74206f706572617481526020017f696f6e616c00000000000000000000000000000000000000000000000000000081525060400191505060405180910390fd5b600560006006600085600019166000191681526020019081526020016000205481526020019081526020016000206000015460006005600083815260200190815260200160002060000154111515612348576040517f08c379a00000000000000000000000000000000000000000000000000000000081526004018080602001828103825260248152602001807f466c6967687420646f6573206e6f742065786973747320696e2074686520737981526020017f7374656d0000000000000000000000000000000000000000000000000000000081525060400191505060405180910390fd5b60066000846000191660001916815260200190815260200160002054915050919050565b600080848484604051602001808473ffffffffffffffffffffffffffffffffffffffff1673ffffffffffffffffffffffffffffffffffffffff166c0100000000000000000000000002815260140183805190602001908083835b6020831015156123eb57805182526020820191506020810190506020830392506123c6565b6001836020036101000a03801982511681845116808217855250505050505090500182815260200193505050506040516020818303038152906040526040518082805190602001908083835b60208310151561245c5780518252602082019150602081019050602083039250612437565b6001836020036101000a03801982511681845116808217855250505050505090500191505060405180910390209050809150509392505050565b60011515600060149054906101000a900460ff161515141515612547576040517f08c379a00000000000000000000000000000000000000000000000000000000081526004018080602001828103825260258152602001807f436f6e74726163742069732063757272656e746c79206e6f74206f706572617481526020017f696f6e616c00000000000000000000000000000000000000000000000000000081525060400191505060405180910390fd5b60011515600160003373ffffffffffffffffffffffffffffffffffffffff1673ffffffffffffffffffffffffffffffffffffffff16815260200190815260200160002060009054906101000a900460ff161515141515612635576040517f08c379a00000000000000000000000000000000000000000000000000000000081526004018080602001828103825260338152602001807f5468652063616c6c6572206973206e6f7420617574686f72697a656420746f2081526020017f63616c6c2074686973206f7065726174696f6e0000000000000000000000000081525060400191505060405180910390fd5b80600060056000838152602001908152602001600020600001541115156126ea576040517f08c379a00000000000000000000000000000000000000000000000000000000081526004018080602001828103825260248152602001807f466c6967687420646f6573206e6f742065786973747320696e2074686520737981526020017f7374656d0000000000000000000000000000000000000000000000000000000081525060400191505060405180910390fd5b60016005600084815260200190815260200160002060030160146101000a81548160ff0219169083600181111561271d57fe5b02179055504260056000848152602001908152602001600020600601819055507f844051a0abf441a622a40b4303f565a053bf7d7d44a77d3a094e0807e796210d826040518082815260200191505060405180910390a15050565b600080606060008061278861465c565b60011515600060149054906101000a900460ff161515141515612839576040517f08c379a00000000000000000000000000000000000000000000000000000000081526004018080602001828103825260258152602001807f436f6e74726163742069732063757272656e746c79206e6f74206f706572617481526020017f696f6e616c00000000000000000000000000000000000000000000000000000081525060400191505060405180910390fd5b86600060086000838152602001908152602001600020600001541115156128ee576040517f08c379a00000000000000000000000000000000000000000000000000000000081526004018080602001828103825260278152602001807f496e737572616e636520646f6573206e6f742065786973747320696e2074686581526020017f2073797374656d0000000000000000000000000000000000000000000000000081525060400191505060405180910390fd5b6008600089815260200190815260200160002060a0604051908101604052908160008201548152602001600182015481526020016002820160009054906101000a900460ff16600281111561293f57fe5b600281111561294a57fe5b8152602001600382015481526020016004820160009054906101000a900473ffffffffffffffffffffffffffffffffffffffff1673ffffffffffffffffffffffffffffffffffffffff1673ffffffffffffffffffffffffffffffffffffffff16815250509150816000015196508160200151955081606001519350816080015192506000826040015160028111156129de57fe5b1415612a1d576040805190810160405280600681526020017f416374697665000000000000000000000000000000000000000000000000000081525094505b600182604001516002811115612a2f57fe5b1415612a6e576040805190810160405280600781526020017f457870697265640000000000000000000000000000000000000000000000000081525094505b600282604001516002811115612a8057fe5b1415612abf576040805190810160405280600881526020017f437265646974656400000000000000000000000000000000000000000000000081525094505b505091939590929450565b606060011515600060149054906101000a900460ff161515141515612b7d576040517f08c379a00000000000000000000000000000000000000000000000000000000081526004018080602001828103825260258152602001807f436f6e74726163742069732063757272656e746c79206e6f74206f706572617481526020017f696f6e616c00000000000000000000000000000000000000000000000000000081525060400191505060405180910390fd5b8160006005600083815260200190815260200160002060000154111515612c32576040517f08c379a00000000000000000000000000000000000000000000000000000000081526004018080602001828103825260248152602001807f466c6967687420646f6573206e6f742065786973747320696e2074686520737981526020017f7374656d0000000000000000000000000000000000000000000000000000000081525060400191505060405180910390fd5b600a6000848152602001908152602001600020805480602002602001604051908101604052809291908181526020018280548015612c8f57602002820191906000526020600020905b815481526020019060010190808311612c7b575b5050505050915050919050565b60025481565b60011515600060149054906101000a900460ff161515141515612d53576040517f08c379a00000000000000000000000000000000000000000000000000000000081526004018080602001828103825260258152602001807f436f6e74726163742069732063757272656e746c79206e6f74206f706572617481526020017f696f6e616c00000000000000000000000000000000000000000000000000000081525060400191505060405180910390fd5b60011515600160003373ffffffffffffffffffffffffffffffffffffffff1673ffffffffffffffffffffffffffffffffffffffff16815260200190815260200160002060009054906101000a900460ff161515141515612e41576040517f08c379a00000000000000000000000000000000000000000000000000000000081526004018080602001828103825260338152602001807f5468652063616c6c6572206973206e6f7420617574686f72697a656420746f2081526020017f63616c6c2074686973206f7065726174696f6e0000000000000000000000000081525060400191505060405180910390fd5b8060006005600083815260200190815260200160002060000154111515612ef6576040517f08c379a00000000000000000000000000000000000000000000000000000000081526004018080602001828103825260248152602001807f466c6967687420646f6573206e6f742065786973747320696e2074686520737981526020017f7374656d0000000000000000000000000000000000000000000000000000000081525060400191505060405180910390fd5b60006005600084815260200190815260200160002060030160146101000a81548160ff02191690836001811115612f2957fe5b02179055504260056000848152602001908152602001600020600601819055507fa621224a6d1f5add421aece987f38527b04018d28cd513f22d60da307ec57fc6826040518082815260200191505060405180910390a15050565b60011515600060149054906101000a900460ff161515141515613035576040517f08c379a00000000000000000000000000000000000000000000000000000000081526004018080602001828103825260258152602001807f436f6e74726163742069732063757272656e746c79206e6f74206f706572617481526020017f696f6e616c00000000000000000000000000000000000000000000000000000081525060400191505060405180910390fd5b60011515600160003373ffffffffffffffffffffffffffffffffffffffff1673ffffffffffffffffffffffffffffffffffffffff16815260200190815260200160002060009054906101000a900460ff161515141515613123576040517f08c379a00000000000000000000000000000000000000000000000000000000081526004018080602001828103825260338152602001807f5468652063616c6c6572206973206e6f7420617574686f72697a656420746f2081526020017f63616c6c2074686973206f7065726174696f6e0000000000000000000000000081525060400191505060405180910390fd5b82600060056000838152602001908152602001600020600001541115156131d8576040517f08c379a00000000000000000000000000000000000000000000000000000000081526004018080602001828103825260248152602001807f466c6967687420646f6573206e6f742065786973747320696e2074686520737981526020017f7374656d0000000000000000000000000000000000000000000000000000000081525060400191505060405180910390fd5b8360006005600083815260200190815260200160002060030160149054906101000a900460ff16600181111561320a57fe5b1415156132a5576040517f08c379a00000000000000000000000000000000000000000000000000000000081526004018080602001828103825260298152602001807f54686520666c69676874206973206e6f7420617661696c61626c6520666f722081526020017f696e737572616e6365000000000000000000000000000000000000000000000081525060400191505060405180910390fd5b6132bb600160075461462790919063ffffffff16565b60078190555060a0604051908101604052806007548152602001868152602001600060028111156132e857fe5b81526020018581526020018473ffffffffffffffffffffffffffffffffffffffff16815250600860006007548152602001908152602001600020600082015181600001556020820151816001015560408201518160020160006101000a81548160ff0219169083600281111561335a57fe5b02179055506060820151816003015560808201518160040160006101000a81548173ffffffffffffffffffffffffffffffffffffffff021916908373ffffffffffffffffffffffffffffffffffffffff160217905550905050600a60008681526020019081526020016000206007549080600181540180825580915050906001820390600052602060002001600090919290919091505550600960008473ffffffffffffffffffffffffffffffffffffffff1673ffffffffffffffffffffffffffffffffffffffff16815260200190815260200160002060075490806001815401808255809150509060018203906000526020600020016000909192909190915055507f70fc732dc0abfe4fefb43fdadf8a94025d705db2b993118b06a5fada7897162e600860006007548152602001908152602001600020600001546040518082815260200191505060405180910390a15050505050565b60011515600060149054906101000a900460ff161515141515613564576040517f08c379a00000000000000000000000000000000000000000000000000000000081526004018080602001828103825260258152602001807f436f6e74726163742069732063757272656e746c79206e6f74206f706572617481526020017f696f6e616c00000000000000000000000000000000000000000000000000000081525060400191505060405180910390fd5b60011515600160003373ffffffffffffffffffffffffffffffffffffffff1673ffffffffffffffffffffffffffffffffffffffff16815260200190815260200160002060009054906101000a900460ff161515141515613652576040517f08c379a00000000000000000000000000000000000000000000000000000000081526004018080602001828103825260338152602001807f5468652063616c6c6572206973206e6f7420617574686f72697a656420746f2081526020017f63616c6c2074686973206f7065726174696f6e0000000000000000000000000081525060400191505060405180910390fd5b8181600b60008273ffffffffffffffffffffffffffffffffffffffff1673ffffffffffffffffffffffffffffffffffffffff168152602001908152602001600020548211151515613731576040517f08c379a000000000000000000000000000000000000000000000000000000000815260040180806020018281038252603f8152602001807f546865206164647265737320646f6573206e6f7420686176652072657175657381526020017f74656420616d6f756e74206f662066756e647320746f2077697468647261770081525060400191505060405180910390fd5b83803073ffffffffffffffffffffffffffffffffffffffff16311115156137e6576040517f08c379a00000000000000000000000000000000000000000000000000000000081526004018080602001828103825260278152602001807f436f6e747261637420646f6573206e6f7420686176652073756666696369656e81526020017f742066756e64730000000000000000000000000000000000000000000000000081525060400191505060405180910390fd5b61383885600b60008773ffffffffffffffffffffffffffffffffffffffff1673ffffffffffffffffffffffffffffffffffffffff1681526020019081526020016000205461464390919063ffffffff16565b600b60008673ffffffffffffffffffffffffffffffffffffffff1673ffffffffffffffffffffffffffffffffffffffff168152602001908152602001600020819055508373ffffffffffffffffffffffffffffffffffffffff166108fc869081150290604051600060405180830381858888f193505050501580156138c1573d6000803e3d6000fd5b507f058b581e2433b8b02263f5b0e5c2889fcb7b3495112884a3147619038fba46d88486604051808373ffffffffffffffffffffffffffffffffffffffff1673ffffffffffffffffffffffffffffffffffffffff1681526020018281526020019250505060405180910390a15050505050565b600060011515600060149054906101000a900460ff1615151415156139e7576040517f08c379a00000000000000000000000000000000000000000000000000000000081526004018080602001828103825260258152602001807f436f6e74726163742069732063757272656e746c79206e6f74206f706572617481526020017f696f6e616c00000000000000000000000000000000000000000000000000000081525060400191505060405180910390fd5b60011515600160003373ffffffffffffffffffffffffffffffffffffffff1673ffffffffffffffffffffffffffffffffffffffff16815260200190815260200160002060009054906101000a900460ff161515141515613ad5576040517f08c379a00000000000000000000000000000000000000000000000000000000081526004018080602001828103825260338152602001807f5468652063616c6c6572206973206e6f7420617574686f72697a656420746f2081526020017f63616c6c2074686973206f7065726174696f6e0000000000000000000000000081525060400191505060405180910390fd5b816000600360008373ffffffffffffffffffffffffffffffffffffffff1673ffffffffffffffffffffffffffffffffffffffff16815260200190815260200160002060000154111515613bb6576040517f08c379a000000000000000000000000000000000000000000000000000000000815260040180806020018281038252602a8152602001807f4169726c696e65207769746820676976656e206164647265737320646f65732081526020017f6e6f74206578697374730000000000000000000000000000000000000000000081525060400191505060405180910390fd5b834281111515613c7a576040517f08c379a00000000000000000000000000000000000000000000000000000000081526004018080602001828103825260518152602001807f466c6967687420686173206265656e20646570617274656420616c726561647981526020017f2c20736f206974206d616b6573206e6f2073656e736520746f2073656c6c206981526020017f6e737572616e63657320666f722069742e00000000000000000000000000000081525060600191505060405180910390fd5b613c90600160045461462790919063ffffffff16565b600481905550613ca184878761236c565b9250610100604051908101604052806004548152602001878152602001846000191681526020018573ffffffffffffffffffffffffffffffffffffffff16815260200160006001811115613cf157fe5b8152602001868152602001600060ff16815260200142815250600560006004548152602001908152602001600020600082015181600001556020820151816001019080519060200190613d459291906146ad565b506040820151816002019060001916905560608201518160030160006101000a81548173ffffffffffffffffffffffffffffffffffffffff021916908373ffffffffffffffffffffffffffffffffffffffff16021790555060808201518160030160146101000a81548160ff02191690836001811115613dc157fe5b021790555060a0820151816004015560c08201518160050160006101000a81548160ff021916908360ff16021790555060e08201518160060155905050600454600660008560001916600019168152602001908152602001600020819055507fa621224a6d1f5add421aece987f38527b04018d28cd513f22d60da307ec57fc66004546040518082815260200191505060405180910390a1505050505050565b600080600060011515600060149054906101000a900460ff161515141515613f17576040517f08c379a00000000000000000000000000000000000000000000000000000000081526004018080602001828103825260258152602001807f436f6e74726163742069732063757272656e746c79206e6f74206f706572617481526020017f696f6e616c00000000000000000000000000000000000000000000000000000081525060400191505060405180910390fd5b836000600360008373ffffffffffffffffffffffffffffffffffffffff1673ffffffffffffffffffffffffffffffffffffffff16815260200190815260200160002060000154111515613ff8576040517f08c379a000000000000000000000000000000000000000000000000000000000815260040180806020018281038252602a8152602001807f4169726c696e65207769746820676976656e206164647265737320646f65732081526020017f6e6f74206578697374730000000000000000000000000000000000000000000081525060400191505060405180910390fd5b849350600360008673ffffffffffffffffffffffffffffffffffffffff1673ffffffffffffffffffffffffffffffffffffffff168152602001908152602001600020600001549250600360008673ffffffffffffffffffffffffffffffffffffffff1673ffffffffffffffffffffffffffffffffffffffff16815260200190815260200160002060010160009054906101000a900460ff169150509193909250565b60011515600060149054906101000a900460ff16151514151561414b576040517f08c379a00000000000000000000000000000000000000000000000000000000081526004018080602001828103825260258152602001807f436f6e74726163742069732063757272656e746c79206e6f74206f706572617481526020017f696f6e616c00000000000000000000000000000000000000000000000000000081525060400191505060405180910390fd5b60011515600160003373ffffffffffffffffffffffffffffffffffffffff1673ffffffffffffffffffffffffffffffffffffffff16815260200190815260200160002060009054906101000a900460ff161515141515614239576040517f08c379a00000000000000000000000000000000000000000000000000000000081526004018080602001828103825260338152602001807f5468652063616c6c6572206973206e6f7420617574686f72697a656420746f2081526020017f63616c6c2074686973206f7065726174696f6e0000000000000000000000000081525060400191505060405180910390fd5b816000600360008373ffffffffffffffffffffffffffffffffffffffff1673ffffffffffffffffffffffffffffffffffffffff1681526020019081526020016000206000015414151561431a576040517f08c379a00000000000000000000000000000000000000000000000000000000081526004018080602001828103825260218152602001807f546865206169726c696e6520697320616c72656164792072656769737465726581526020017f640000000000000000000000000000000000000000000000000000000000000081525060400191505060405180910390fd5b614330600160025461462790919063ffffffff16565b60028190555060408051908101604052806002548152602001831515815250600360008573ffffffffffffffffffffffffffffffffffffffff1673ffffffffffffffffffffffffffffffffffffffff1681526020019081526020016000206000820151816000015560208201518160010160006101000a81548160ff021916908315150217905550905050505050565b6000809054906101000a900473ffffffffffffffffffffffffffffffffffffffff168073ffffffffffffffffffffffffffffffffffffffff163373ffffffffffffffffffffffffffffffffffffffff161415156144ab576040517f08c379a000000000000000000000000000000000000000000000000000000000815260040180806020018281038252602d8152602001807f43757272656e742063616c6c65722063616e206e6f7420696e766f6b6520746881526020017f6973206f7065726174696f6e2e0000000000000000000000000000000000000081525060400191505060405180910390fd5b60011515600060149054906101000a900460ff16151514151561455c576040517f08c379a00000000000000000000000000000000000000000000000000000000081526004018080602001828103825260258152602001807f436f6e74726163742069732063757272656e746c79206e6f74206f706572617481526020017f696f6e616c00000000000000000000000000000000000000000000000000000081525060400191505060405180910390fd5b81600160008573ffffffffffffffffffffffffffffffffffffffff1673ffffffffffffffffffffffffffffffffffffffff16815260200190815260200160002060006101000a81548160ff0219169083151502179055507f2b702c90b361ecda82fc0ebec53619994a17dc277bbe713cd6b913a334d3c1f28383604051808373ffffffffffffffffffffffffffffffffffffffff1673ffffffffffffffffffffffffffffffffffffffff168152602001821515151581526020019250505060405180910390a1505050565b6000818301905082811015151561463a57fe5b80905092915050565b600082821115151561465157fe5b818303905092915050565b60a06040519081016040528060008152602001600081526020016000600281111561468357fe5b815260200160008152602001600073ffffffffffffffffffffffffffffffffffffffff1681525090565b828054600181600116156101000203166002900490600052602060002090601f016020900481019282601f106146ee57805160ff191683800117855561471c565b8280016001018555821561471c579182015b8281111561471b578251825591602001919060010190614700565b5b509050614729919061472d565b5090565b61474f91905b8082111561474b576000816000905550600101614733565b5090565b905600a165627a7a72305820b96a8a700e722f2d96cfaf7eccbf3c6a05c3fecd9a568148862567300ba771090029",
  "source": "pragma solidity 0.4.24;\n\nimport \"../node_modules/openzeppelin-solidity/contracts/math/SafeMath.sol\";\n\ncontract FlightSuretyData {\n    using SafeMath for uint256;\n\n    /********************************************************************************************/\n    /*                                       DATA VARIABLES                                     */\n    /********************************************************************************************/\n\n    address private contractOwner;\n    bool private contractIsOperational;\n    mapping (address => bool) authorizedCallers;\n\n    // Funds Resource\n    event FundsAdded(address contractAddress, uint amount);\n    event CallerIsAuthorizedUpdate(address contractAddress, bool isAuthorized);\n\n    // Airlines Resource\n    struct Airline {\n        uint id;\n        bool isVoter;\n    }\n    uint public airlinesCount;\n    mapping(address => Airline) public airlines;\n    event AirlineRegistered(address airlineAddress);\n    event AirlineIsVoterUpdate(address airlineAddress, bool isVoter);\n\n    // Flight Resource\n    uint public flightCount;\n    enum FlightState{AvailableForInsurance, NotAvailableForInsurance}\n    struct Flight {\n        uint id;\n        string flight;\n        bytes32 key;\n        address airlineAddress;\n        FlightState state;\n        uint departureTimestamp;\n        uint8 departureStatusCode;\n        uint updatedTimestamp;\n    }\n    mapping(uint => Flight) private flights;\n    mapping(bytes32 => uint) flightKeyToId;\n    event FlightAvailableForInsurance(uint id);\n    event FlightIsNotAvailableForInsurance(uint id);\n    event FlightDepartureStatusCodeUpdated(uint id, uint8 statusCode);\n\n    // Insurance Resource\n    uint public insuranceCount;\n    enum InsuranceState {Active, Expired, Credited}\n    struct Insurance {\n        uint id;\n        uint flightId;\n        InsuranceState state;\n        uint amountPaid;\n        address owner;\n    }\n    mapping(uint => Insurance) public insurancesById;\n    mapping(address => uint[]) private passengerToInsurances;\n    mapping(uint => uint[]) private flightToInsurances;\n    event InsuranceActive(uint id);\n    event InsuranceCredited(uint id);\n    event InsuranceExpired(uint id);\n\n    // Credited Amount Resource\n    mapping(address => uint) public creditedAmounts;\n    event AmountWithdrawn(address _address, uint amountWithdrawn);\n\n    constructor\n    ()\n    public\n    payable\n    {\n        contractOwner = msg.sender;\n\n        contractIsOperational = true;\n\n        airlinesCount = 0;\n\n        flightCount = 0;\n\n        insuranceCount = 0;\n\n        // Authorizing yourself to call own functions, that can be called\n        // externally and hence require authorization\n        authorizedCallers[address(this)] = true;\n        authorizedCallers[contractOwner] = true;\n\n        // creating the default airline\n        airlinesCount = airlinesCount.add(1);\n        airlines[contractOwner] = Airline({id: airlinesCount, isVoter: true});\n\n        // adding Funds from the contract creator (and first airline) to the Contract\n        address(this).transfer(msg.value);\n    }\n\n    modifier verifyIsOperational()\n    {\n        require(contractIsOperational == true, \"Contract is currently not operational\");\n        _;\n    }\n\n    modifier verifyCallerIs(address _address)\n    {\n        require(msg.sender == _address, \"Current caller can not invoke this operation.\");\n        _;\n    }\n\n    modifier verifyAirlineExists(address _address)\n    {\n        require(airlines[_address].id > 0, \"Airline with given address does not exists\");\n        _;\n    }\n\n    modifier verifyCallerIsAuthorized()\n    {\n        require(authorizedCallers[msg.sender] == true, \"The caller is not authorized to call this operation\");\n        _;\n    }\n\n    modifier verifyFlightExists(uint _id)\n    {\n        require(flights[_id].id > 0, \"Flight does not exists in the system\");\n        _;\n    }\n\n    modifier verifyFlightIsAvailableForInsurance(uint _flightId)\n    {\n        require(uint(flights[_flightId].state) == 0, \"The flight is not available for insurance\");\n        _;\n    }\n\n    modifier verifyInsuranceExists(uint _id)\n    {\n        require(insurancesById[_id].id > 0, \"Insurance does not exists in the system\");\n        _;\n    }\n\n    modifier verifyCanBeCredited(uint _id)\n    {\n        require(uint(insurancesById[_id].state) == 0, \"The insurance can not be credited, b/c it is not Active\");\n        _;\n    }\n\n    modifier verifyCanBeWithdrawn(uint amountToWithdraw, address _address)\n    {\n        require(amountToWithdraw <= creditedAmounts[_address], \"The address does not have requested amount of funds to withdraw\");\n        _;\n    }\n\n    modifier verifyNotDepartedAlready(uint _timestamp){\n        require(_timestamp > block.timestamp, \"Flight has been departed already, so it makes no sense to sell insurances for it.\");\n        _;\n    }\n\n    modifier verifyContractHasSufficientFunds(uint amountToWithdraw) {\n        require(address(this).balance > amountToWithdraw, \"Contract does not have sufficient funds\");\n        _;\n    }\n\n\n    modifier verifyAirlineDoesNotExist(address airlineAddress) {\n        require(airlines[airlineAddress].id == 0, \"The airline is already registered\");\n        _;\n    }\n\n\n    // Contract Management Resource\n    function getOperationalStatus\n    ()\n    public\n    view\n    returns(bool)\n    {\n        return contractIsOperational;\n    }\n\n    function setOperationalStatus\n    (bool mode)\n    verifyCallerIs(contractOwner)\n    public\n    {\n        contractIsOperational = mode;\n    }\n\n    function setIsAuthorizedCaller\n    (address _address, bool isAuthorized)\n    verifyCallerIs(contractOwner)\n    verifyIsOperational\n    public\n    {\n        authorizedCallers[_address] = isAuthorized;\n        emit CallerIsAuthorizedUpdate(_address, isAuthorized);\n    }\n\n    function getIsAuthorizedCaller\n    (address _address)\n    verifyIsOperational\n    public\n    view\n    returns (bool)\n    {\n        return authorizedCallers[_address];\n    }\n\n    // Airline Resource\n    function createAirline\n    (address airlineAddress, bool isVoter)\n    verifyIsOperational\n    verifyCallerIsAuthorized\n    verifyAirlineDoesNotExist(airlineAddress)\n    public\n    {\n        airlinesCount = airlinesCount.add(1);\n        airlines[airlineAddress] = Airline({id: airlinesCount, isVoter: isVoter});\n    }\n\n    function getAirline\n    (address _address)\n    verifyIsOperational\n    verifyAirlineExists(_address)\n    public\n    view\n    returns (address airlineAddress, uint id, bool isVoter)\n    {\n        airlineAddress = _address;\n        id = airlines[_address].id;\n        isVoter = airlines[_address].isVoter;\n    }\n\n    function getAirlinesCount\n    ()\n    verifyIsOperational\n    public\n    view\n    returns (uint)\n    {\n        return (airlinesCount);\n    }\n\n    function setAirlineIsVoter\n    (address _address, bool _isVoter)\n    verifyIsOperational\n    verifyCallerIsAuthorized\n    verifyAirlineExists(_address)\n    public\n    {\n        airlines[_address].isVoter = _isVoter;\n        emit AirlineIsVoterUpdate(_address, _isVoter);\n    }\n\n    // Flight Resource\n    function createFlight\n    (string _flight, uint _departureTimestamp, address _airlineAddress)\n    verifyIsOperational\n    verifyCallerIsAuthorized\n    verifyAirlineExists(_airlineAddress)\n    verifyNotDepartedAlready(_departureTimestamp)\n    public\n    {\n        flightCount = flightCount.add(1);\n        bytes32 key = createFlightKey(_airlineAddress, _flight, _departureTimestamp);\n        flights[flightCount] = Flight(\n            {id: flightCount,\n            flight: _flight,\n            key: key,\n            airlineAddress: _airlineAddress,\n            state: FlightState.AvailableForInsurance,\n            departureTimestamp: _departureTimestamp,\n            departureStatusCode: 0,\n            updatedTimestamp: block.timestamp});\n        flightKeyToId[key] = flightCount;\n\n        emit FlightAvailableForInsurance(flightCount);\n    }\n\n    function getFlight\n    (uint _id)\n    verifyIsOperational\n    verifyFlightExists(_id)\n    public\n    view\n    returns\n    (uint id, string flight, bytes32 key, address airlineAddress, string memory state, uint departureTimestamp, uint8 departureStatusCode, uint updated)\n    {\n        id = flights[_id].id;\n        flight = flights[_id].flight;\n        key = flights[_id].key;\n        airlineAddress = flights[_id].airlineAddress;\n        departureStatusCode = flights[_id].departureStatusCode;\n        departureTimestamp = flights[_id].departureTimestamp;\n        updated = flights[_id].updatedTimestamp;\n        if(uint(flights[_id].state) == 0) {\n            state = \"Available For Insurance\";\n        }\n        if(uint(flights[_id].state) == 1) {\n            state = \"Unavailable For Insurance\";\n        }\n    }\n\n    function getFlightIdByKey\n    (bytes32 _key)\n    verifyIsOperational\n    verifyFlightExists(flights[flightKeyToId[_key]].id)\n    external\n    view\n    returns (uint)\n    {\n        return flightKeyToId[_key];\n    }\n\n    function setUnavailableForInsurance\n    (uint _id)\n    verifyIsOperational\n    verifyCallerIsAuthorized\n    verifyFlightExists(_id)\n    public\n    {\n        flights[_id].state = FlightState.NotAvailableForInsurance;\n        flights[_id].updatedTimestamp = block.timestamp;\n        emit FlightIsNotAvailableForInsurance(_id);\n    }\n\n    function setAvailableForInsurance\n    (uint _id)\n    verifyIsOperational\n    verifyCallerIsAuthorized\n    verifyFlightExists(_id)\n    public\n    {\n        flights[_id].state = FlightState.AvailableForInsurance;\n        flights[_id].updatedTimestamp = block.timestamp;\n        emit FlightAvailableForInsurance(_id);\n    }\n\n    function setDepartureStatusCode\n    (uint _id, uint8 _statusCode)\n    verifyIsOperational\n    verifyCallerIsAuthorized\n    verifyFlightExists(_id)\n    public\n    {\n        flights[_id].departureStatusCode = _statusCode;\n        flights[_id].updatedTimestamp = block.timestamp;\n        emit FlightDepartureStatusCodeUpdated(_id, _statusCode);\n    }\n\n    function createFlightKey\n    (address airline, string flight, uint256 timestamp)\n    public\n    pure\n    returns(bytes32)\n    {\n        bytes32 keyBytes = keccak256(abi.encodePacked(airline, flight, timestamp));\n        return keyBytes;\n    }\n\n    // Insurance Resource\n    function createInsurance\n    (uint _flightId, uint _amountPaid, address _owner)\n    verifyIsOperational\n    verifyCallerIsAuthorized\n    verifyFlightExists(_flightId)\n    verifyFlightIsAvailableForInsurance(_flightId)\n    external\n    {\n        insuranceCount = insuranceCount.add(1);\n        insurancesById[insuranceCount] = Insurance(\n            {id: insuranceCount,\n            flightId: _flightId,\n            state: InsuranceState.Active,\n            amountPaid: _amountPaid,\n            owner: _owner});\n        flightToInsurances[_flightId].push(insuranceCount);\n        passengerToInsurances[_owner].push(insuranceCount);\n        emit InsuranceActive(insurancesById[insuranceCount].id);\n    }\n\n    function getInsurancesByFlight\n    (uint _flightId)\n    verifyIsOperational\n    verifyFlightExists(_flightId)\n    public\n    view\n    returns (uint [])\n    {\n        return flightToInsurances[_flightId];\n    }\n\n    function getInsurancesByPassenger\n    (address _address)\n    verifyIsOperational\n    public\n    view\n    returns (uint [])\n    {\n        return passengerToInsurances[_address];\n    }\n\n    function getInsurance\n    (uint _id)\n    verifyIsOperational\n    verifyInsuranceExists(_id)\n    public\n    view\n    returns (uint id, uint flightId, string memory state, uint amountPaid, address owner)\n    {\n        Insurance memory insurance = insurancesById[_id];\n        id = insurance.id;\n        flightId = insurance.flightId;\n        amountPaid = insurance.amountPaid;\n        owner = insurance.owner;\n        if(uint(insurance.state) == 0) {\n            state = \"Active\";\n        }\n        if(uint(insurance.state) == 1) {\n            state = \"Expired\";\n        }\n        if(uint(insurance.state) == 2) {\n            state = \"Credited\";\n        }\n    }\n\n    function creditInsurance\n    (uint _id, uint _amountToCredit)\n    verifyIsOperational\n    verifyCallerIsAuthorized\n    verifyInsuranceExists(_id)\n    verifyCanBeCredited(_id)\n    public\n    {\n        Insurance memory insurance = insurancesById[_id];\n        creditedAmounts[insurance.owner] = creditedAmounts[insurance.owner].add(_amountToCredit);\n        insurancesById[_id].state = InsuranceState.Credited;\n        emit InsuranceCredited(_id);\n    }\n\n    // Credited Amount Resource\n    function getCreditedAmount\n    (address _address)\n    verifyIsOperational\n    public\n    view\n    returns (uint amountCredited)\n    {\n        amountCredited = creditedAmounts[_address];\n    }\n\n    function withdrawCreditedAmount\n    (uint _amountToWithdraw, address _address)\n    verifyIsOperational\n    verifyCallerIsAuthorized\n    verifyCanBeWithdrawn(_amountToWithdraw, _address)\n    verifyContractHasSufficientFunds(_amountToWithdraw)\n    public\n    payable\n    {\n        creditedAmounts[_address] = creditedAmounts[_address].sub(_amountToWithdraw);\n        _address.transfer(_amountToWithdraw);\n        emit AmountWithdrawn(_address, _amountToWithdraw);\n    }\n    /**\n    * @dev Fallback function for funding smart contract.\n    *\n    */\n    function\n    ()\n    external\n    payable\n    {\n        emit FundsAdded(address(this), msg.value);\n    }\n}",
  "sourcePath": "/home/cryptokowsik/UdacityBlockchain/flight-surety/contracts/FlightSuretyData.sol",
  "compiler": {
    "name": "solc",
    "version": "0.4.24+commit.e67f0147.Emscripten.clang"
  },
  "schemaVersion": "3.1.0",
  "updatedAt": "2020-05-19T16:18:43.591Z",
  "devdoc": {
    "methods": {}
  },
  "userdoc": {
    "methods": {}
  }
}