{
  "contractName": "FlightSuretyApp",
  "abi": [
    {
      "constant": true,
      "inputs": [],
      "name": "REGISTRATION_FEE",
      "outputs": [
        {
          "name": "",
          "type": "uint256"
        }
      ],
      "payable": false,
      "stateMutability": "view",
      "type": "function"
    },
    {
      "inputs": [
        {
          "name": "dataContractAddress",
          "type": "address"
        }
      ],
      "payable": false,
      "stateMutability": "nonpayable",
      "type": "constructor"
    },
    {
      "payable": true,
      "stateMutability": "payable",
      "type": "fallback"
    },
    {
      "anonymous": false,
      "inputs": [
        {
          "indexed": false,
          "name": "oldNumerator",
          "type": "uint8"
        },
        {
          "indexed": false,
          "name": "oldDenominator",
          "type": "uint8"
        },
        {
          "indexed": false,
          "name": "newNumerator",
          "type": "uint8"
        },
        {
          "indexed": false,
          "name": "newDenominator",
          "type": "uint8"
        }
      ],
      "name": "ConsensusMultipliersUpdate",
      "type": "event"
    },
    {
      "anonymous": false,
      "inputs": [
        {
          "indexed": false,
          "name": "oldFee",
          "type": "uint256"
        },
        {
          "indexed": false,
          "name": "newFee",
          "type": "uint256"
        }
      ],
      "name": "RegistrationFeeUpdate",
      "type": "event"
    },
    {
      "anonymous": false,
      "inputs": [
        {
          "indexed": false,
          "name": "oldCap",
          "type": "uint256"
        },
        {
          "indexed": false,
          "name": "newCap",
          "type": "uint256"
        }
      ],
      "name": "InsuranceCapUpdate",
      "type": "event"
    },
    {
      "anonymous": false,
      "inputs": [
        {
          "indexed": false,
          "name": "oldNumerator",
          "type": "uint8"
        },
        {
          "indexed": false,
          "name": "oldDenominator",
          "type": "uint8"
        },
        {
          "indexed": false,
          "name": "newNumerator",
          "type": "uint8"
        },
        {
          "indexed": false,
          "name": "newDenominator",
          "type": "uint8"
        }
      ],
      "name": "InsuranceMultipliersUpdate",
      "type": "event"
    },
    {
      "anonymous": false,
      "inputs": [
        {
          "indexed": false,
          "name": "isConsensusReached",
          "type": "bool"
        },
        {
          "indexed": false,
          "name": "voteCount",
          "type": "uint256"
        },
        {
          "indexed": false,
          "name": "totalCount",
          "type": "uint256"
        }
      ],
      "name": "VoteCounted",
      "type": "event"
    },
    {
      "anonymous": false,
      "inputs": [
        {
          "indexed": false,
          "name": "airlineAddress",
          "type": "address"
        },
        {
          "indexed": false,
          "name": "fee",
          "type": "uint256"
        }
      ],
      "name": "RegistrationFeePaid",
      "type": "event"
    },
    {
      "anonymous": false,
      "inputs": [
        {
          "indexed": false,
          "name": "airlineAddress",
          "type": "address"
        }
      ],
      "name": "AirlineRegistered",
      "type": "event"
    },
    {
      "anonymous": false,
      "inputs": [
        {
          "indexed": false,
          "name": "airline",
          "type": "address"
        },
        {
          "indexed": false,
          "name": "flight",
          "type": "string"
        },
        {
          "indexed": false,
          "name": "timestamp",
          "type": "uint256"
        },
        {
          "indexed": false,
          "name": "status",
          "type": "uint8"
        }
      ],
      "name": "FlightStatusInfo",
      "type": "event"
    },
    {
      "anonymous": false,
      "inputs": [
        {
          "indexed": false,
          "name": "airline",
          "type": "address"
        },
        {
          "indexed": false,
          "name": "flight",
          "type": "string"
        },
        {
          "indexed": false,
          "name": "timestamp",
          "type": "uint256"
        },
        {
          "indexed": false,
          "name": "status",
          "type": "uint8"
        }
      ],
      "name": "OracleReport",
      "type": "event"
    },
    {
      "anonymous": false,
      "inputs": [
        {
          "indexed": false,
          "name": "index",
          "type": "uint8"
        },
        {
          "indexed": false,
          "name": "airline",
          "type": "address"
        },
        {
          "indexed": false,
          "name": "flight",
          "type": "string"
        },
        {
          "indexed": false,
          "name": "timestamp",
          "type": "uint256"
        }
      ],
      "name": "OracleRequest",
      "type": "event"
    },
    {
      "constant": true,
      "inputs": [],
      "name": "getOperationalStatus",
      "outputs": [
        {
          "name": "",
          "type": "bool"
        }
      ],
      "payable": false,
      "stateMutability": "view",
      "type": "function"
    },
    {
      "constant": false,
      "inputs": [
        {
          "name": "status",
          "type": "bool"
        }
      ],
      "name": "setOperationalStatus",
      "outputs": [],
      "payable": false,
      "stateMutability": "nonpayable",
      "type": "function"
    },
    {
      "constant": true,
      "inputs": [],
      "name": "getRegistrationFee",
      "outputs": [
        {
          "name": "",
          "type": "uint256"
        }
      ],
      "payable": false,
      "stateMutability": "view",
      "type": "function"
    },
    {
      "constant": false,
      "inputs": [
        {
          "name": "_fee",
          "type": "uint256"
        }
      ],
      "name": "setRegistrationFee",
      "outputs": [],
      "payable": false,
      "stateMutability": "nonpayable",
      "type": "function"
    },
    {
      "constant": true,
      "inputs": [],
      "name": "getInsuranceCap",
      "outputs": [
        {
          "name": "",
          "type": "uint256"
        }
      ],
      "payable": false,
      "stateMutability": "view",
      "type": "function"
    },
    {
      "constant": false,
      "inputs": [
        {
          "name": "_cap",
          "type": "uint256"
        }
      ],
      "name": "setInsuranceCap",
      "outputs": [],
      "payable": false,
      "stateMutability": "nonpayable",
      "type": "function"
    },
    {
      "constant": false,
      "inputs": [
        {
          "name": "numerator",
          "type": "uint8"
        },
        {
          "name": "denominator",
          "type": "uint8"
        }
      ],
      "name": "setConsensusMultipliers",
      "outputs": [],
      "payable": false,
      "stateMutability": "nonpayable",
      "type": "function"
    },
    {
      "constant": true,
      "inputs": [],
      "name": "getConsensusMultipliers",
      "outputs": [
        {
          "name": "numerator",
          "type": "uint8"
        },
        {
          "name": "denominator",
          "type": "uint8"
        }
      ],
      "payable": false,
      "stateMutability": "view",
      "type": "function"
    },
    {
      "constant": false,
      "inputs": [],
      "name": "payRegistrationFee",
      "outputs": [],
      "payable": true,
      "stateMutability": "payable",
      "type": "function"
    },
    {
      "constant": false,
      "inputs": [
        {
          "name": "_address",
          "type": "address"
        }
      ],
      "name": "registerAirline",
      "outputs": [],
      "payable": false,
      "stateMutability": "nonpayable",
      "type": "function"
    },
    {
      "constant": true,
      "inputs": [
        {
          "name": "_address",
          "type": "address"
        }
      ],
      "name": "getAirline",
      "outputs": [
        {
          "name": "airlineAddress",
          "type": "address"
        },
        {
          "name": "id",
          "type": "uint256"
        },
        {
          "name": "isVoter",
          "type": "bool"
        }
      ],
      "payable": false,
      "stateMutability": "view",
      "type": "function"
    },
    {
      "constant": false,
      "inputs": [
        {
          "name": "numerator",
          "type": "uint8"
        },
        {
          "name": "denominator",
          "type": "uint8"
        }
      ],
      "name": "setInsurancePremiumMultiplier",
      "outputs": [],
      "payable": false,
      "stateMutability": "nonpayable",
      "type": "function"
    },
    {
      "constant": true,
      "inputs": [],
      "name": "getInsurancePremiumMultiplier",
      "outputs": [
        {
          "name": "numerator",
          "type": "uint8"
        },
        {
          "name": "denominator",
          "type": "uint8"
        }
      ],
      "payable": false,
      "stateMutability": "view",
      "type": "function"
    },
    {
      "constant": false,
      "inputs": [
        {
          "name": "_flightId",
          "type": "uint256"
        },
        {
          "name": "_amountPaid",
          "type": "uint256"
        }
      ],
      "name": "buyInsurance",
      "outputs": [],
      "payable": true,
      "stateMutability": "payable",
      "type": "function"
    },
    {
      "constant": true,
      "inputs": [
        {
          "name": "_id",
          "type": "uint256"
        }
      ],
      "name": "getInsurance",
      "outputs": [
        {
          "name": "id",
          "type": "uint256"
        },
        {
          "name": "flightId",
          "type": "uint256"
        },
        {
          "name": "state",
          "type": "string"
        },
        {
          "name": "amountPaid",
          "type": "uint256"
        },
        {
          "name": "owner",
          "type": "address"
        }
      ],
      "payable": false,
      "stateMutability": "view",
      "type": "function"
    },
    {
      "constant": false,
      "inputs": [
        {
          "name": "flight",
          "type": "string"
        },
        {
          "name": "_departureTimestamp",
          "type": "uint256"
        },
        {
          "name": "_airlineAddress",
          "type": "address"
        }
      ],
      "name": "registerFlight",
      "outputs": [],
      "payable": false,
      "stateMutability": "nonpayable",
      "type": "function"
    },
    {
      "constant": true,
      "inputs": [
        {
          "name": "_id",
          "type": "uint256"
        }
      ],
      "name": "getFlight",
      "outputs": [
        {
          "name": "id",
          "type": "uint256"
        },
        {
          "name": "flight",
          "type": "string"
        },
        {
          "name": "key",
          "type": "bytes32"
        },
        {
          "name": "airlineAddress",
          "type": "address"
        },
        {
          "name": "state",
          "type": "string"
        },
        {
          "name": "departureTimestamp",
          "type": "uint256"
        },
        {
          "name": "departureStatusCode",
          "type": "uint8"
        },
        {
          "name": "updated",
          "type": "uint256"
        }
      ],
      "payable": false,
      "stateMutability": "view",
      "type": "function"
    },
    {
      "constant": false,
      "inputs": [
        {
          "name": "airline",
          "type": "address"
        },
        {
          "name": "flight",
          "type": "string"
        },
        {
          "name": "timestamp",
          "type": "uint256"
        },
        {
          "name": "statusCode",
          "type": "uint8"
        }
      ],
      "name": "processFlightStatus",
      "outputs": [],
      "payable": false,
      "stateMutability": "nonpayable",
      "type": "function"
    },
    {
      "constant": false,
      "inputs": [
        {
          "name": "airline",
          "type": "address"
        },
        {
          "name": "flight",
          "type": "string"
        },
        {
          "name": "timestamp",
          "type": "uint256"
        }
      ],
      "name": "fetchFlightStatus",
      "outputs": [],
      "payable": false,
      "stateMutability": "nonpayable",
      "type": "function"
    },
    {
      "constant": true,
      "inputs": [
        {
          "name": "_address",
          "type": "address"
        }
      ],
      "name": "getCreditedAmount",
      "outputs": [
        {
          "name": "",
          "type": "uint256"
        }
      ],
      "payable": false,
      "stateMutability": "view",
      "type": "function"
    },
    {
      "constant": false,
      "inputs": [
        {
          "name": "_amountToWithdraw",
          "type": "uint256"
        },
        {
          "name": "_address",
          "type": "address"
        }
      ],
      "name": "withdrawCreditedAmount",
      "outputs": [],
      "payable": true,
      "stateMutability": "payable",
      "type": "function"
    },
    {
      "constant": false,
      "inputs": [],
      "name": "registerOracle",
      "outputs": [],
      "payable": true,
      "stateMutability": "payable",
      "type": "function"
    },
    {
      "constant": true,
      "inputs": [],
      "name": "getMyIndexes",
      "outputs": [
        {
          "name": "",
          "type": "uint8[3]"
        }
      ],
      "payable": false,
      "stateMutability": "view",
      "type": "function"
    },
    {
      "constant": false,
      "inputs": [
        {
          "name": "index",
          "type": "uint8"
        },
        {
          "name": "airline",
          "type": "address"
        },
        {
          "name": "flight",
          "type": "string"
        },
        {
          "name": "timestamp",
          "type": "uint256"
        },
        {
          "name": "statusCode",
          "type": "uint8"
        }
      ],
      "name": "submitOracleResponse",
      "outputs": [],
      "payable": false,
      "stateMutability": "nonpayable",
      "type": "function"
    }
  ],
  "bytecode": "0x60806040526000600660026101000a81548160ff021916908360ff1602179055503480156200002d57600080fd5b50604051602080620054778339810180604052810190808051906020019092919050505033600160006101000a81548173ffffffffffffffffffffffffffffffffffffffff021916908373ffffffffffffffffffffffffffffffffffffffff16021790555060018060146101000a81548160ff0219169083151502179055506000604051908082528060200260200182016040528015620000dd5781602001602082028038833980820191505090505b5060029080519060200190620000f5929190620001cb565b50678ac7230489e80000600481905550670de0b6b3a76400006005819055506001600360006101000a81548160ff021916908360ff1602179055506002600360016101000a81548160ff021916908360ff1602179055506003600660006101000a81548160ff021916908360ff1602179055506002600660016101000a81548160ff021916908360ff160217905550806000806101000a81548173ffffffffffffffffffffffffffffffffffffffff021916908373ffffffffffffffffffffffffffffffffffffffff16021790555050620002a0565b82805482825590600052602060002090810192821562000247579160200282015b82811115620002465782518260006101000a81548173ffffffffffffffffffffffffffffffffffffffff021916908373ffffffffffffffffffffffffffffffffffffffff16021790555091602001919060010190620001ec565b5b5090506200025691906200025a565b5090565b6200029d91905b808211156200029957600081816101000a81549073ffffffffffffffffffffffffffffffffffffffff02191690555060010162000261565b5090565b90565b6151c780620002b06000396000f300608060405260043610610149576000357c0100000000000000000000000000000000000000000000000000000000900463ffffffff1680630946e8071461014b5780630c98267314610176578063168f55a5146101a557806319e05b85146101e35780632432c0f114610221578063339d25901461022b5780633914bf3e146102355780633a4396cb146102625780635122cb38146103d85780635f1cc0e61461040757806364b4f7511461045a57806365c152f7146104855780636f81a69c14610518578063776e4f241461056f57806385fae6021461059a578063a7b1b35314610688578063bdfd9877146106b2578063c10f2700146106f5578063c320c72714610774578063cab2acf0146107a1578063db7f8029146107e1578063e1de04891461081e578063e40066c3146108b3578063e7bdde3b146108f0578063f83f11c014610990575b005b34801561015757600080fd5b50610160610a23565b6040518082815260200191505060405180910390f35b34801561018257600080fd5b5061018b610ade565b604051808215151515815260200191505060405180910390f35b3480156101b157600080fd5b506101ba610af5565b604051808360ff1660ff1681526020018260ff1660ff1681526020019250505060405180910390f35b3480156101ef57600080fd5b506101f8610bd1565b604051808360ff1660ff1681526020018260ff1660ff1681526020019250505060405180910390f35b610229610cad565b005b610233611134565b005b34801561024157600080fd5b506102606004803603810190808035906020019092919050505061130d565b005b34801561026e57600080fd5b5061028d600480360381019080803590602001909291905050506114fe565b604051808981526020018060200188600019166000191681526020018773ffffffffffffffffffffffffffffffffffffffff1673ffffffffffffffffffffffffffffffffffffffff168152602001806020018681526020018560ff1660ff16815260200184815260200183810383528a818151815260200191508051906020019080838360005b8381101561032f578082015181840152602081019050610314565b50505050905090810190601f16801561035c5780820380516001836020036101000a031916815260200191505b50838103825287818151815260200191508051906020019080838360005b8381101561039557808201518184015260208101905061037a565b50505050905090810190601f1680156103c25780820380516001836020036101000a031916815260200191505b509a505050505050505050505060405180910390f35b3480156103e457600080fd5b50610405600480360381019080803515159060200190929190505050611788565b005b34801561041357600080fd5b5061041c611892565b6040518082600360200280838360005b8381101561044757808201518184015260208101905061042c565b5050505090500191505060405180910390f35b34801561046657600080fd5b5061046f611ab8565b6040518082815260200191505060405180910390f35b34801561049157600080fd5b50610516600480360381019080803590602001908201803590602001908080601f016020809104026020016040519081016040528093929190818152602001838380828437820191505050505050919291929080359060200190929190803573ffffffffffffffffffffffffffffffffffffffff169060200190929190505050611ac4565b005b34801561052457600080fd5b50610559600480360381019080803573ffffffffffffffffffffffffffffffffffffffff169060200190929190505050611cc3565b6040518082815260200191505060405180910390f35b34801561057b57600080fd5b50610584611e74565b6040518082815260200191505060405180910390f35b3480156105a657600080fd5b506105c560048036038101908080359060200190929190505050611f2f565b60405180868152602001858152602001806020018481526020018373ffffffffffffffffffffffffffffffffffffffff1673ffffffffffffffffffffffffffffffffffffffff168152602001828103825285818151815260200191508051906020019080838360005b8381101561064957808201518184015260208101905061062e565b50505050905090810190601f1680156106765780820380516001836020036101000a031916815260200191505b50965050505050505060405180910390f35b6106b06004803603810190808035906020019092919080359060200190929190505050612147565b005b3480156106be57600080fd5b506106f3600480360381019080803573ffffffffffffffffffffffffffffffffffffffff169060200190929190505050612431565b005b34801561070157600080fd5b50610772600480360381019080803560ff169060200190929190803573ffffffffffffffffffffffffffffffffffffffff16906020019092919080359060200190820180359060200191909192939192939080359060200190929190803560ff169060200190929190505050612f6f565b005b34801561078057600080fd5b5061079f60048036038101908080359060200190929190505050613638565b005b6107df60048036038101908080359060200190929190803573ffffffffffffffffffffffffffffffffffffffff169060200190929190505050613829565b005b3480156107ed57600080fd5b5061081c600480360381019080803560ff169060200190929190803560ff1690602001909291905050506139ba565b005b34801561082a57600080fd5b5061085f600480360381019080803573ffffffffffffffffffffffffffffffffffffffff169060200190929190505050613ce8565b604051808473ffffffffffffffffffffffffffffffffffffffff1673ffffffffffffffffffffffffffffffffffffffff16815260200183815260200182151515158152602001935050505060405180910390f35b3480156108bf57600080fd5b506108ee600480360381019080803560ff169060200190929190803560ff169060200190929190505050613eb6565b005b3480156108fc57600080fd5b5061098e600480360381019080803573ffffffffffffffffffffffffffffffffffffffff169060200190929190803590602001908201803590602001908080601f016020809104026020016040519081016040528093929190818152602001838380828437820191505050505050919291929080359060200190929190803560ff16906020019092919050505061413c565b005b34801561099c57600080fd5b50610a21600480360381019080803573ffffffffffffffffffffffffffffffffffffffff169060200190929190803590602001908201803590602001908080601f0160208091040260200160405190810160405280939291908181526020018383808284378201915050505050509192919290803590602001909291905050506148c7565b005b600060011515600160149054906101000a900460ff161515141515610ad6576040517f08c379a00000000000000000000000000000000000000000000000000000000081526004018080602001828103825260258152602001807f436f6e74726163742069732063757272656e746c79206e6f74206f706572617481526020017f696f6e616c00000000000000000000000000000000000000000000000000000081525060400191505060405180910390fd5b600454905090565b6000600160149054906101000a900460ff16905090565b60008060011515600160149054906101000a900460ff161515141515610ba9576040517f08c379a00000000000000000000000000000000000000000000000000000000081526004018080602001828103825260258152602001807f436f6e74726163742069732063757272656e746c79206e6f74206f706572617481526020017f696f6e616c00000000000000000000000000000000000000000000000000000081525060400191505060405180910390fd5b600660009054906101000a900460ff16600660019054906101000a900460ff16915091509091565b60008060011515600160149054906101000a900460ff161515141515610c85576040517f08c379a00000000000000000000000000000000000000000000000000000000081526004018080602001828103825260258152602001807f436f6e74726163742069732063757272656e746c79206e6f74206f706572617481526020017f696f6e616c00000000000000000000000000000000000000000000000000000081525060400191505060405180910390fd5b600360009054906101000a900460ff16600360019054906101000a900460ff16915091509091565b60011515600160149054906101000a900460ff161515141515610d5e576040517f08c379a00000000000000000000000000000000000000000000000000000000081526004018080602001828103825260258152602001807f436f6e74726163742069732063757272656e746c79206e6f74206f706572617481526020017f696f6e616c00000000000000000000000000000000000000000000000000000081525060400191505060405180910390fd5b60008060008060009054906101000a900473ffffffffffffffffffffffffffffffffffffffff1673ffffffffffffffffffffffffffffffffffffffff1663e1de0489336040518263ffffffff167c0100000000000000000000000000000000000000000000000000000000028152600401808273ffffffffffffffffffffffffffffffffffffffff1673ffffffffffffffffffffffffffffffffffffffff168152602001915050606060405180830381600087803b158015610e1f57600080fd5b505af1158015610e33573d6000803e3d6000fd5b505050506040513d6060811015610e4957600080fd5b81019080805190602001909291908051906020019092919080519060200190929190505050925092509250600454803410151515610f15576040517f08c379a000000000000000000000000000000000000000000000000000000000815260040180806020018281038252602e8152602001807f546865206d6573736167652076616c7565206973206c657373207468616e207281526020017f6571756972656420616d6f756e7400000000000000000000000000000000000081525060400191505060405180910390fd5b60045460008060009054906101000a900473ffffffffffffffffffffffffffffffffffffffff1673ffffffffffffffffffffffffffffffffffffffff166108fc349081150290604051600060405180830381858888f19350505050158015610f81573d6000803e3d6000fd5b506000809054906101000a900473ffffffffffffffffffffffffffffffffffffffff1673ffffffffffffffffffffffffffffffffffffffff16637066b1fd3360016040518363ffffffff167c0100000000000000000000000000000000000000000000000000000000028152600401808373ffffffffffffffffffffffffffffffffffffffff1673ffffffffffffffffffffffffffffffffffffffff1681526020018215151515815260200192505050600060405180830381600087803b15801561104b57600080fd5b505af115801561105f573d6000803e3d6000fd5b505050507f7111f0e8e9dcc93b06ab6bf56fd094a95f76a198a82b93ed856b451053f235b133600454604051808373ffffffffffffffffffffffffffffffffffffffff1673ffffffffffffffffffffffffffffffffffffffff1681526020018281526020019250505060405180910390a16110e38234614c7290919063ffffffff16565b90503373ffffffffffffffffffffffffffffffffffffffff166108fc829081150290604051600060405180830381858888f1935050505015801561112b573d6000803e3d6000fd5b50505050505050565b61113c614fe1565b60011515600160149054906101000a900460ff1615151415156111ed576040517f08c379a00000000000000000000000000000000000000000000000000000000081526004018080602001828103825260258152602001807f436f6e74726163742069732063757272656e746c79206e6f74206f706572617481526020017f696f6e616c00000000000000000000000000000000000000000000000000000081525060400191505060405180910390fd5b670de0b6b3a7640000341015151561126d576040517f08c379a000000000000000000000000000000000000000000000000000000000815260040180806020018281038252601c8152602001807f526567697374726174696f6e206665652069732072657175697265640000000081525060200191505060405180910390fd5b61127633614c8b565b9050604080519081016040528060011515815260200182815250600760003373ffffffffffffffffffffffffffffffffffffffff1673ffffffffffffffffffffffffffffffffffffffff16815260200190815260200160002060008201518160000160006101000a81548160ff021916908315150217905550602082015181600101906003611306929190615004565b5090505050565b600060011515600160149054906101000a900460ff1615151415156113c0576040517f08c379a00000000000000000000000000000000000000000000000000000000081526004018080602001828103825260258152602001807f436f6e74726163742069732063757272656e746c79206e6f74206f706572617481526020017f696f6e616c00000000000000000000000000000000000000000000000000000081525060400191505060405180910390fd5b600160009054906101000a900473ffffffffffffffffffffffffffffffffffffffff168073ffffffffffffffffffffffffffffffffffffffff163373ffffffffffffffffffffffffffffffffffffffff161415156114ac576040517f08c379a000000000000000000000000000000000000000000000000000000000815260040180806020018281038252602d8152602001807f43757272656e742063616c6c65722063616e206e6f7420696e766f6b6520746881526020017f6973206f7065726174696f6e2e0000000000000000000000000000000000000081525060400191505060405180910390fd5b6005549150826005819055507fa36e5e3d5cd6a5d5addcedfa5885b82b11255ba580518eb43fda5c60017c647e82600554604051808381526020018281526020019250505060405180910390a1505050565b600060606000806060600080600060011515600160149054906101000a900460ff1615151415156115bd576040517f08c379a00000000000000000000000000000000000000000000000000000000081526004018080602001828103825260258152602001807f436f6e74726163742069732063757272656e746c79206e6f74206f706572617481526020017f696f6e616c00000000000000000000000000000000000000000000000000000081525060400191505060405180910390fd5b6000809054906101000a900473ffffffffffffffffffffffffffffffffffffffff1673ffffffffffffffffffffffffffffffffffffffff16633a4396cb8a6040518263ffffffff167c010000000000000000000000000000000000000000000000000000000002815260040180828152602001915050600060405180830381600087803b15801561164d57600080fd5b505af1158015611661573d6000803e3d6000fd5b505050506040513d6000823e3d601f19601f8201168201806040525061010081101561168c57600080fd5b810190808051906020019092919080516401000000008111156116ae57600080fd5b828101905060208101848111156116c457600080fd5b81518560018202830111640100000000821117156116e157600080fd5b50509291906020018051906020019092919080519060200190929190805164010000000081111561171157600080fd5b8281019050602081018481111561172757600080fd5b815185600182028301116401000000008211171561174457600080fd5b505092919060200180519060200190929190805190602001909291908051906020019092919050505097509750975097509750975097509750919395975091939597565b600160009054906101000a900473ffffffffffffffffffffffffffffffffffffffff168073ffffffffffffffffffffffffffffffffffffffff163373ffffffffffffffffffffffffffffffffffffffff16141515611874576040517f08c379a000000000000000000000000000000000000000000000000000000000815260040180806020018281038252602d8152602001807f43757272656e742063616c6c65722063616e206e6f7420696e766f6b6520746881526020017f6973206f7065726174696f6e2e0000000000000000000000000000000000000081525060400191505060405180910390fd5b81600160146101000a81548160ff0219169083151502179055505050565b61189a614fe1565b60011515600160149054906101000a900460ff16151514151561194b576040517f08c379a00000000000000000000000000000000000000000000000000000000081526004018080602001828103825260258152602001807f436f6e74726163742069732063757272656e746c79206e6f74206f706572617481526020017f696f6e616c00000000000000000000000000000000000000000000000000000081525060400191505060405180910390fd5b600760003373ffffffffffffffffffffffffffffffffffffffff1673ffffffffffffffffffffffffffffffffffffffff16815260200190815260200160002060000160009054906101000a900460ff161515611a0f576040517f08c379a000000000000000000000000000000000000000000000000000000000815260040180806020018281038252601b8152602001807f4e6f74207265676973746572656420617320616e206f7261636c65000000000081525060200191505060405180910390fd5b600760003373ffffffffffffffffffffffffffffffffffffffff1673ffffffffffffffffffffffffffffffffffffffff168152602001908152602001600020600101600380602002604051908101604052809291908260038015611aae576020028201916000905b82829054906101000a900460ff1660ff1681526020019060010190602082600001049283019260010382029150808411611a775790505b5050505050905090565b670de0b6b3a764000081565b60011515600160149054906101000a900460ff161515141515611b75576040517f08c379a00000000000000000000000000000000000000000000000000000000081526004018080602001828103825260258152602001807f436f6e74726163742069732063757272656e746c79206e6f74206f706572617481526020017f696f6e616c00000000000000000000000000000000000000000000000000000081525060400191505060405180910390fd5b6000809054906101000a900473ffffffffffffffffffffffffffffffffffffffff1673ffffffffffffffffffffffffffffffffffffffff1663dbf7ee9f8484846040518463ffffffff167c010000000000000000000000000000000000000000000000000000000002815260040180806020018481526020018373ffffffffffffffffffffffffffffffffffffffff1673ffffffffffffffffffffffffffffffffffffffff168152602001828103825285818151815260200191508051906020019080838360005b83811015611c58578082015181840152602081019050611c3d565b50505050905090810190601f168015611c855780820380516001836020036101000a031916815260200191505b50945050505050600060405180830381600087803b158015611ca657600080fd5b505af1158015611cba573d6000803e3d6000fd5b50505050505050565b600060011515600160149054906101000a900460ff161515141515611d76576040517f08c379a00000000000000000000000000000000000000000000000000000000081526004018080602001828103825260258152602001807f436f6e74726163742069732063757272656e746c79206e6f74206f706572617481526020017f696f6e616c00000000000000000000000000000000000000000000000000000081525060400191505060405180910390fd5b6000809054906101000a900473ffffffffffffffffffffffffffffffffffffffff1673ffffffffffffffffffffffffffffffffffffffff16636f81a69c836040518263ffffffff167c0100000000000000000000000000000000000000000000000000000000028152600401808273ffffffffffffffffffffffffffffffffffffffff1673ffffffffffffffffffffffffffffffffffffffff168152602001915050602060405180830381600087803b158015611e3257600080fd5b505af1158015611e46573d6000803e3d6000fd5b505050506040513d6020811015611e5c57600080fd5b81019080805190602001909291905050509050919050565b600060011515600160149054906101000a900460ff161515141515611f27576040517f08c379a00000000000000000000000000000000000000000000000000000000081526004018080602001828103825260258152602001807f436f6e74726163742069732063757272656e746c79206e6f74206f706572617481526020017f696f6e616c00000000000000000000000000000000000000000000000000000081525060400191505060405180910390fd5b600554905090565b600080606060008060011515600160149054906101000a900460ff161515141515611fe8576040517f08c379a00000000000000000000000000000000000000000000000000000000081526004018080602001828103825260258152602001807f436f6e74726163742069732063757272656e746c79206e6f74206f706572617481526020017f696f6e616c00000000000000000000000000000000000000000000000000000081525060400191505060405180910390fd5b6000809054906101000a900473ffffffffffffffffffffffffffffffffffffffff1673ffffffffffffffffffffffffffffffffffffffff166385fae602876040518263ffffffff167c010000000000000000000000000000000000000000000000000000000002815260040180828152602001915050600060405180830381600087803b15801561207857600080fd5b505af115801561208c573d6000803e3d6000fd5b505050506040513d6000823e3d601f19601f8201168201806040525060a08110156120b657600080fd5b81019080805190602001909291908051906020019092919080516401000000008111156120e257600080fd5b828101905060208101848111156120f857600080fd5b815185600182028301116401000000008211171561211557600080fd5b505092919060200180519060200190929190805190602001909291905050509450945094509450945091939590929450565b60011515600160149054906101000a900460ff1615151415156121f8576040517f08c379a00000000000000000000000000000000000000000000000000000000081526004018080602001828103825260258152602001807f436f6e74726163742069732063757272656e746c79206e6f74206f706572617481526020017f696f6e616c00000000000000000000000000000000000000000000000000000081525060400191505060405180910390fd5b600554803411151515612299576040517f08c379a00000000000000000000000000000000000000000000000000000000081526004018080602001828103825260218152602001807f5468652076616c75652065786365656473207468652063757272656e7420636181526020017f700000000000000000000000000000000000000000000000000000000000000081525060400191505060405180910390fd5b6000809054906101000a900473ffffffffffffffffffffffffffffffffffffffff1673ffffffffffffffffffffffffffffffffffffffff1663a4c01f2a8484336040518463ffffffff167c0100000000000000000000000000000000000000000000000000000000028152600401808481526020018381526020018273ffffffffffffffffffffffffffffffffffffffff1673ffffffffffffffffffffffffffffffffffffffff1681526020019350505050600060405180830381600087803b15801561236557600080fd5b505af1158015612379573d6000803e3d6000fd5b505050503073ffffffffffffffffffffffffffffffffffffffff166108fc349081150290604051600060405180830381858888f193505050501580156123c3573d6000803e3d6000fd5b506000809054906101000a900473ffffffffffffffffffffffffffffffffffffffff1673ffffffffffffffffffffffffffffffffffffffff166108fc349081150290604051600060405180830381858888f1935050505015801561242b573d6000803e3d6000fd5b50505050565b60008060011515600160149054906101000a900460ff1615151415156124e5576040517f08c379a00000000000000000000000000000000000000000000000000000000081526004018080602001828103825260258152602001807f436f6e74726163742069732063757272656e746c79206e6f74206f706572617481526020017f696f6e616c00000000000000000000000000000000000000000000000000000081525060400191505060405180910390fd5b60008060008060009054906101000a900473ffffffffffffffffffffffffffffffffffffffff1673ffffffffffffffffffffffffffffffffffffffff1663e1de0489336040518263ffffffff167c0100000000000000000000000000000000000000000000000000000000028152600401808273ffffffffffffffffffffffffffffffffffffffff1673ffffffffffffffffffffffffffffffffffffffff168152602001915050606060405180830381600087803b1580156125a657600080fd5b505af11580156125ba573d6000803e3d6000fd5b505050506040513d60608110156125d057600080fd5b8101908080519060200190929190805190602001909291908051906020019092919050505092509250925060008060008060009054906101000a900473ffffffffffffffffffffffffffffffffffffffff1673ffffffffffffffffffffffffffffffffffffffff1663e1de0489336040518263ffffffff167c0100000000000000000000000000000000000000000000000000000000028152600401808273ffffffffffffffffffffffffffffffffffffffff1673ffffffffffffffffffffffffffffffffffffffff168152602001915050606060405180830381600087803b1580156126bc57600080fd5b505af11580156126d0573d6000803e3d6000fd5b505050506040513d60608110156126e657600080fd5b81019080805190602001909291908051906020019092919080519060200190929190505050925092509250600115158115151415156127b3576040517f08c379a00000000000000000000000000000000000000000000000000000000081526004018080602001828103825260368152602001807f4169726c696e652068617320746f2070617920726567697374726174696f6e2081526020017f66656520746f2062652061626c6520746f20766f74650000000000000000000081525060400191505060405180910390fd5b60008060008060009054906101000a900473ffffffffffffffffffffffffffffffffffffffff1673ffffffffffffffffffffffffffffffffffffffff166305e931f46040518163ffffffff167c0100000000000000000000000000000000000000000000000000000000028152600401602060405180830381600087803b15801561283d57600080fd5b505af1158015612851573d6000803e3d6000fd5b505050506040513d602081101561286757600080fd5b81019080805190602001909291905050509250600460ff16831015156129995760009150600090505b60028054905081101561291c573373ffffffffffffffffffffffffffffffffffffffff166002828154811015156128c357fe5b9060005260206000200160009054906101000a900473ffffffffffffffffffffffffffffffffffffffff1673ffffffffffffffffffffffffffffffffffffffff16141561290f57600191505b8080600101915050612890565b60001515821515141515612998576040517f08c379a000000000000000000000000000000000000000000000000000000000815260040180806020018281038252601c8152602001807f5468652063616c6c65722068617320616c726561647920766f7465640000000081525060200191505060405180910390fd5b5b6000809054906101000a900473ffffffffffffffffffffffffffffffffffffffff1673ffffffffffffffffffffffffffffffffffffffff166305e931f46040518163ffffffff167c0100000000000000000000000000000000000000000000000000000000028152600401602060405180830381600087803b158015612a1e57600080fd5b505af1158015612a32573d6000803e3d6000fd5b505050506040513d6020811015612a4857600080fd5b81019080805190602001909291905050509a50600460ff168b1015612bb0576000809054906101000a900473ffffffffffffffffffffffffffffffffffffffff1673ffffffffffffffffffffffffffffffffffffffff1663e47a1c088d60006040518363ffffffff167c0100000000000000000000000000000000000000000000000000000000028152600401808373ffffffffffffffffffffffffffffffffffffffff1673ffffffffffffffffffffffffffffffffffffffff1681526020018215151515815260200192505050600060405180830381600087803b158015612b3057600080fd5b505af1158015612b44573d6000803e3d6000fd5b505050507f89a6354fb229eda6cbc28306798727b4d524818d2c375220bc3f360f24cffaca8c604051808273ffffffffffffffffffffffffffffffffffffffff1673ffffffffffffffffffffffffffffffffffffffff16815260200191505060405180910390a1612f61565b60023390806001815401808255809150509060018203906000526020600020016000909192909190916101000a81548173ffffffffffffffffffffffffffffffffffffffff021916908373ffffffffffffffffffffffffffffffffffffffff16021790555050612c3b600360009054906101000a900460ff1660ff168c614e3190919063ffffffff16565b612c65600360019054906101000a900460ff1660ff16600280549050614e3190919063ffffffff16565b1015612cc1577f2fc52cf1ae430473f9aa01cc2e598769e871d843974b2dbbe2bfdef883c6b6be60006002805490508d6040518084151515158152602001838152602001828152602001935050505060405180910390a1612f60565b6000809054906101000a900473ffffffffffffffffffffffffffffffffffffffff1673ffffffffffffffffffffffffffffffffffffffff1663e47a1c088d60006040518363ffffffff167c0100000000000000000000000000000000000000000000000000000000028152600401808373ffffffffffffffffffffffffffffffffffffffff1673ffffffffffffffffffffffffffffffffffffffff1681526020018215151515815260200192505050600060405180830381600087803b158015612d8a57600080fd5b505af1158015612d9e573d6000803e3d6000fd5b505050506000809054906101000a900473ffffffffffffffffffffffffffffffffffffffff1673ffffffffffffffffffffffffffffffffffffffff166305e931f46040518163ffffffff167c0100000000000000000000000000000000000000000000000000000000028152600401602060405180830381600087803b158015612e2757600080fd5b505af1158015612e3b573d6000803e3d6000fd5b505050506040513d6020811015612e5157600080fd5b810190808051906020019092919050505099507f2fc52cf1ae430473f9aa01cc2e598769e871d843974b2dbbe2bfdef883c6b6be60016002805490508c6040518084151515158152602001838152602001828152602001935050505060405180910390a16000604051908082528060200260200182016040528015612ee55781602001602082028038833980820191505090505b5060029080519060200190612efb92919061509e565b507f89a6354fb229eda6cbc28306798727b4d524818d2c375220bc3f360f24cffaca8c604051808273ffffffffffffffffffffffffffffffffffffffff1673ffffffffffffffffffffffffffffffffffffffff16815260200191505060405180910390a15b5b505050505050505050505050565b600060011515600160149054906101000a900460ff161515141515613022576040517f08c379a00000000000000000000000000000000000000000000000000000000081526004018080602001828103825260258152602001807f436f6e74726163742069732063757272656e746c79206e6f74206f706572617481526020017f696f6e616c00000000000000000000000000000000000000000000000000000081525060400191505060405180910390fd5b8660ff16600760003373ffffffffffffffffffffffffffffffffffffffff1673ffffffffffffffffffffffffffffffffffffffff168152602001908152602001600020600101600060038110151561307657fe5b602091828204019190069054906101000a900460ff1660ff16148061310557508660ff16600760003373ffffffffffffffffffffffffffffffffffffffff1673ffffffffffffffffffffffffffffffffffffffff16815260200190815260200160002060010160016003811015156130ea57fe5b602091828204019190069054906101000a900460ff1660ff16145b8061317a57508660ff16600760003373ffffffffffffffffffffffffffffffffffffffff1673ffffffffffffffffffffffffffffffffffffffff168152602001908152602001600020600101600260038110151561315f57fe5b602091828204019190069054906101000a900460ff1660ff16145b1515613214576040517f08c379a00000000000000000000000000000000000000000000000000000000081526004018080602001828103825260238152602001807f496e64657820646f6573206e6f74206d61746368206f7261636c65207265717581526020017f657374000000000000000000000000000000000000000000000000000000000081525060400191505060405180910390fd5b8686868686604051602001808660ff1660ff167f01000000000000000000000000000000000000000000000000000000000000000281526001018573ffffffffffffffffffffffffffffffffffffffff1673ffffffffffffffffffffffffffffffffffffffff166c010000000000000000000000000281526014018484808284378201915050828152602001955050505050506040516020818303038152906040526040518082805190602001908083835b6020831015156132eb57805182526020820191506020810190506020830392506132c6565b6001836020036101000a0380198251168184511680821785525050505050509050019150506040518091039020905060086000826000191660001916815260200190815260200160002060000160149054906101000a900460ff1615156133e0576040517f08c379a000000000000000000000000000000000000000000000000000000000815260040180806020018281038252602f8152602001807f466c69676874206f722074696d657374616d7020646f206e6f74206d6174636881526020017f206f7261636c652072657175657374000000000000000000000000000000000081525060400191505060405180910390fd5b60086000826000191660001916815260200190815260200160002060010160008360ff1660ff1681526020019081526020016000203390806001815401808255809150509060018203906000526020600020016000909192909190916101000a81548173ffffffffffffffffffffffffffffffffffffffff021916908373ffffffffffffffffffffffffffffffffffffffff160217905550507f43c853095c2752648493c88b4baac4d580d2594ffb00c6f1d4242d844514f7838686868686604051808673ffffffffffffffffffffffffffffffffffffffff1673ffffffffffffffffffffffffffffffffffffffff168152602001806020018481526020018360ff1660ff16815260200182810382528686828181526020019250808284378201915050965050505050505060405180910390a1600360086000836000191660001916815260200190815260200160002060010160008460ff1660ff16815260200190815260200160002080549050141561362f577fe23f5229de535c091e3b7bec2665f5d698192d3b31393066e8987b7a05076b6c8686868686604051808673ffffffffffffffffffffffffffffffffffffffff1673ffffffffffffffffffffffffffffffffffffffff168152602001806020018481526020018360ff1660ff16815260200182810382528686828181526020019250808284378201915050965050505050505060405180910390a161362e8686868080601f016020809104026020016040519081016040528093929190818152602001838380828437820191505050505050858561413c565b5b50505050505050565b600060011515600160149054906101000a900460ff1615151415156136eb576040517f08c379a00000000000000000000000000000000000000000000000000000000081526004018080602001828103825260258152602001807f436f6e74726163742069732063757272656e746c79206e6f74206f706572617481526020017f696f6e616c00000000000000000000000000000000000000000000000000000081525060400191505060405180910390fd5b600160009054906101000a900473ffffffffffffffffffffffffffffffffffffffff168073ffffffffffffffffffffffffffffffffffffffff163373ffffffffffffffffffffffffffffffffffffffff161415156137d7576040517f08c379a000000000000000000000000000000000000000000000000000000000815260040180806020018281038252602d8152602001807f43757272656e742063616c6c65722063616e206e6f7420696e766f6b6520746881526020017f6973206f7065726174696f6e2e0000000000000000000000000000000000000081525060400191505060405180910390fd5b6004549150826004819055507f5c7911ec2b323bfd6d676b54b502baab00a49fbbe861c829f21e953bb101fa4682600454604051808381526020018281526020019250505060405180910390a1505050565b60011515600160149054906101000a900460ff1615151415156138da576040517f08c379a00000000000000000000000000000000000000000000000000000000081526004018080602001828103825260258152602001807f436f6e74726163742069732063757272656e746c79206e6f74206f706572617481526020017f696f6e616c00000000000000000000000000000000000000000000000000000081525060400191505060405180910390fd5b6000809054906101000a900473ffffffffffffffffffffffffffffffffffffffff1673ffffffffffffffffffffffffffffffffffffffff1663cab2acf083836040518363ffffffff167c0100000000000000000000000000000000000000000000000000000000028152600401808381526020018273ffffffffffffffffffffffffffffffffffffffff1673ffffffffffffffffffffffffffffffffffffffff16815260200192505050600060405180830381600087803b15801561399e57600080fd5b505af11580156139b2573d6000803e3d6000fd5b505050505050565b60008060011515600160149054906101000a900460ff161515141515613a6e576040517f08c379a00000000000000000000000000000000000000000000000000000000081526004018080602001828103825260258152602001807f436f6e74726163742069732063757272656e746c79206e6f74206f706572617481526020017f696f6e616c00000000000000000000000000000000000000000000000000000081525060400191505060405180910390fd5b600160009054906101000a900473ffffffffffffffffffffffffffffffffffffffff168073ffffffffffffffffffffffffffffffffffffffff163373ffffffffffffffffffffffffffffffffffffffff16141515613b5a576040517f08c379a000000000000000000000000000000000000000000000000000000000815260040180806020018281038252602d8152602001807f43757272656e742063616c6c65722063616e206e6f7420696e766f6b6520746881526020017f6973206f7065726174696f6e2e0000000000000000000000000000000000000081525060400191505060405180910390fd5b84848060ff168260ff1611151515613c00576040517f08c379a000000000000000000000000000000000000000000000000000000000815260040180806020018281038252603f8152602001807f436f6e73656e7375732077696c6c206e6576657220626520726561636865642c81526020017f20622f6320796f752077616e74206974206d6f7265207468616e20313030250081525060400191505060405180910390fd5b600360009054906101000a900460ff169450600360019054906101000a900460ff16935085600360016101000a81548160ff021916908360ff16021790555086600360006101000a81548160ff021916908360ff1602179055507fa52edf6d29266e3f601f051494bb6fb6d2589e79e625f9f4001e5fa434745c378585600360009054906101000a900460ff16600360019054906101000a900460ff16604051808560ff1660ff1681526020018460ff1660ff1681526020018360ff1660ff1681526020018260ff1660ff16815260200194505050505060405180910390a150505050505050565b600080600060011515600160149054906101000a900460ff161515141515613d9e576040517f08c379a00000000000000000000000000000000000000000000000000000000081526004018080602001828103825260258152602001807f436f6e74726163742069732063757272656e746c79206e6f74206f706572617481526020017f696f6e616c00000000000000000000000000000000000000000000000000000081525060400191505060405180910390fd5b6000809054906101000a900473ffffffffffffffffffffffffffffffffffffffff1673ffffffffffffffffffffffffffffffffffffffff1663e1de0489856040518263ffffffff167c0100000000000000000000000000000000000000000000000000000000028152600401808273ffffffffffffffffffffffffffffffffffffffff1673ffffffffffffffffffffffffffffffffffffffff168152602001915050606060405180830381600087803b158015613e5a57600080fd5b505af1158015613e6e573d6000803e3d6000fd5b505050506040513d6060811015613e8457600080fd5b810190808051906020019092919080519060200190929190805190602001909291905050509250925092509193909250565b60008060011515600160149054906101000a900460ff161515141515613f6a576040517f08c379a00000000000000000000000000000000000000000000000000000000081526004018080602001828103825260258152602001807f436f6e74726163742069732063757272656e746c79206e6f74206f706572617481526020017f696f6e616c00000000000000000000000000000000000000000000000000000081525060400191505060405180910390fd5b600160009054906101000a900473ffffffffffffffffffffffffffffffffffffffff168073ffffffffffffffffffffffffffffffffffffffff163373ffffffffffffffffffffffffffffffffffffffff16141515614056576040517f08c379a000000000000000000000000000000000000000000000000000000000815260040180806020018281038252602d8152602001807f43757272656e742063616c6c65722063616e206e6f7420696e766f6b6520746881526020017f6973206f7065726174696f6e2e0000000000000000000000000000000000000081525060400191505060405180910390fd5b600660009054906101000a900460ff169250600660019054906101000a900460ff16915083600660016101000a81548160ff021916908360ff16021790555084600660006101000a81548160ff021916908360ff1602179055507fcd06871bae92401f8480d45746ec7c10aefc39f7a775a7ae81355c686a5d6e1d8383600660009054906101000a900460ff16600660019054906101000a900460ff16604051808560ff1660ff1681526020018460ff1660ff1681526020018360ff1660ff1681526020018260ff1660ff16815260200194505050505060405180910390a15050505050565b60008060606000806000809054906101000a900473ffffffffffffffffffffffffffffffffffffffff1673ffffffffffffffffffffffffffffffffffffffff166374fdd27d8a8a8a6040518463ffffffff167c0100000000000000000000000000000000000000000000000000000000028152600401808473ffffffffffffffffffffffffffffffffffffffff1673ffffffffffffffffffffffffffffffffffffffff16815260200180602001838152602001828103825284818151815260200191508051906020019080838360005b8381101561422757808201518184015260208101905061420c565b50505050905090810190601f1680156142545780820380516001836020036101000a031916815260200191505b50945050505050602060405180830381600087803b15801561427557600080fd5b505af1158015614289573d6000803e3d6000fd5b505050506040513d602081101561429f57600080fd5b810190808051906020019092919050505094506000809054906101000a900473ffffffffffffffffffffffffffffffffffffffff1673ffffffffffffffffffffffffffffffffffffffff166372165d34866040518263ffffffff167c0100000000000000000000000000000000000000000000000000000000028152600401808260001916600019168152602001915050602060405180830381600087803b15801561434a57600080fd5b505af115801561435e573d6000803e3d6000fd5b505050506040513d602081101561437457600080fd5b810190808051906020019092919050505093506000809054906101000a900473ffffffffffffffffffffffffffffffffffffffff1673ffffffffffffffffffffffffffffffffffffffff1663386ae9ca85886040518363ffffffff167c0100000000000000000000000000000000000000000000000000000000028152600401808381526020018260ff1660ff16815260200192505050600060405180830381600087803b15801561442557600080fd5b505af1158015614439573d6000803e3d6000fd5b50505050600060ff168660ff161415156144f6576000809054906101000a900473ffffffffffffffffffffffffffffffffffffffff1673ffffffffffffffffffffffffffffffffffffffff166381c99f0f856040518263ffffffff167c010000000000000000000000000000000000000000000000000000000002815260040180828152602001915050600060405180830381600087803b1580156144dd57600080fd5b505af11580156144f1573d6000803e3d6000fd5b505050505b601460ff168660ff1614156148bc576000809054906101000a900473ffffffffffffffffffffffffffffffffffffffff1673ffffffffffffffffffffffffffffffffffffffff16638f83df04856040518263ffffffff167c010000000000000000000000000000000000000000000000000000000002815260040180828152602001915050600060405180830381600087803b15801561459557600080fd5b505af11580156145a9573d6000803e3d6000fd5b505050506040513d6000823e3d601f19601f8201168201806040525060208110156145d357600080fd5b8101908080516401000000008111156145eb57600080fd5b8281019050602081018481111561460157600080fd5b815185602082028301116401000000008211171561461e57600080fd5b50509291905050509250600091505b82518210156148bb576000809054906101000a900473ffffffffffffffffffffffffffffffffffffffff1673ffffffffffffffffffffffffffffffffffffffff166385fae602848481518110151561468157fe5b906020019060200201516040518263ffffffff167c010000000000000000000000000000000000000000000000000000000002815260040180828152602001915050600060405180830381600087803b1580156146dd57600080fd5b505af11580156146f1573d6000803e3d6000fd5b505050506040513d6000823e3d601f19601f8201168201806040525060a081101561471b57600080fd5b810190808051906020019092919080519060200190929190805164010000000081111561474757600080fd5b8281019050602081018481111561475d57600080fd5b815185600182028301116401000000008211171561477a57600080fd5b505092919060200180519060200190929190805190602001909291905050505093505050506000809054906101000a900473ffffffffffffffffffffffffffffffffffffffff1673ffffffffffffffffffffffffffffffffffffffff16636caad08084848151811015156147ea57fe5b9060200190602002015161483d600660019054906101000a900460ff1660ff1661482f600660009054906101000a900460ff1660ff1687614e3190919063ffffffff16565b614e6990919063ffffffff16565b6040518363ffffffff167c01000000000000000000000000000000000000000000000000000000000281526004018083815260200182815260200192505050600060405180830381600087803b15801561489657600080fd5b505af11580156148aa573d6000803e3d6000fd5b50505050818060010192505061462d565b5b505050505050505050565b60008060011515600160149054906101000a900460ff16151514151561497b576040517f08c379a00000000000000000000000000000000000000000000000000000000081526004018080602001828103825260258152602001807f436f6e74726163742069732063757272656e746c79206e6f74206f706572617481526020017f696f6e616c00000000000000000000000000000000000000000000000000000081525060400191505060405180910390fd5b61498433614e7f565b915081858585604051602001808560ff1660ff167f01000000000000000000000000000000000000000000000000000000000000000281526001018473ffffffffffffffffffffffffffffffffffffffff1673ffffffffffffffffffffffffffffffffffffffff166c0100000000000000000000000002815260140183805190602001908083835b602083101515614a315780518252602082019150602081019050602083039250614a0c565b6001836020036101000a0380198251168184511680821785525050505050509050018281526020019450505050506040516020818303038152906040526040518082805190602001908083835b602083101515614aa35780518252602082019150602081019050602083039250614a7e565b6001836020036101000a0380198251168184511680821785525050505050509050019150506040518091039020905060408051908101604052803373ffffffffffffffffffffffffffffffffffffffff1681526020016001151581525060086000836000191660001916815260200190815260200160002060008201518160000160006101000a81548173ffffffffffffffffffffffffffffffffffffffff021916908373ffffffffffffffffffffffffffffffffffffffff16021790555060208201518160000160146101000a81548160ff0219169083151502179055509050507f3ed01f2c3fc24c6b329d931e35b03e390d23497d22b3f90e15b600343e93df1182868686604051808560ff1660ff1681526020018473ffffffffffffffffffffffffffffffffffffffff1673ffffffffffffffffffffffffffffffffffffffff16815260200180602001838152602001828103825284818151815260200191508051906020019080838360005b83811015614c2e578082015181840152602081019050614c13565b50505050905090810190601f168015614c5b5780820380516001836020036101000a031916815260200191505b509550505050505060405180910390a15050505050565b6000828211151515614c8057fe5b818303905092915050565b614c93614fe1565b614c9b614fe1565b614ca483614e7f565b816000600381101515614cb357fe5b602002019060ff16908160ff1681525050806000600381101515614cd357fe5b6020020151816001600381101515614ce757fe5b602002019060ff16908160ff16815250505b806000600381101515614d0857fe5b602002015160ff16816001600381101515614d1f57fe5b602002015160ff161415614d5b57614d3683614e7f565b816001600381101515614d4557fe5b602002019060ff16908160ff1681525050614cf9565b806001600381101515614d6a57fe5b6020020151816002600381101515614d7e57fe5b602002019060ff16908160ff16815250505b806000600381101515614d9f57fe5b602002015160ff16816002600381101515614db657fe5b602002015160ff161480614df55750806001600381101515614dd457fe5b602002015160ff16816002600381101515614deb57fe5b602002015160ff16145b15614e2857614e0383614e7f565b816002600381101515614e1257fe5b602002019060ff16908160ff1681525050614d90565b80915050919050565b600080831415614e445760009050614e63565b8183029050818382811515614e5557fe5b04141515614e5f57fe5b8090505b92915050565b60008183811515614e7657fe5b04905092915050565b6000806000600a91508160ff166006600281819054906101000a900460ff168092919060010191906101000a81548160ff021916908360ff16021790555060ff16430340856040516020018083600019166000191681526020018273ffffffffffffffffffffffffffffffffffffffff1673ffffffffffffffffffffffffffffffffffffffff166c01000000000000000000000000028152601401925050506040516020818303038152906040526040518082805190602001908083835b602083101515614f625780518252602082019150602081019050602083039250614f3d565b6001836020036101000a038019825116818451168082178552505050505050905001915050604051809103902060019004811515614f9c57fe5b06905060fa600660029054906101000a900460ff1660ff161115614fd7576000600660026101000a81548160ff021916908360ff1602179055505b8092505050919050565b606060405190810160405280600390602082028038833980820191505090505090565b826003601f0160209004810192821561508d5791602002820160005b8382111561505e57835183826101000a81548160ff021916908360ff1602179055509260200192600101602081600001049283019260010302615020565b801561508b5782816101000a81549060ff021916905560010160208160000104928301926001030261505e565b505b50905061509a9190615128565b5090565b828054828255906000526020600020908101928215615117579160200282015b828111156151165782518260006101000a81548173ffffffffffffffffffffffffffffffffffffffff021916908373ffffffffffffffffffffffffffffffffffffffff160217905550916020019190600101906150be565b5b5090506151249190615158565b5090565b61515591905b8082111561515157600081816101000a81549060ff02191690555060010161512e565b5090565b90565b61519891905b8082111561519457600081816101000a81549073ffffffffffffffffffffffffffffffffffffffff02191690555060010161515e565b5090565b905600a165627a7a723058203d942c873c7bb7ae8fa62f744c8eb6510b2049f165fac3e54bd8d9883e1540d90029",
  "source": "pragma solidity 0.4.24;\n\n// It's important to avoid vulnerabilities due to numeric overflow bugs\n// OpenZeppelin's SafeMath library, when used correctly, protects agains such bugs\n// More info: https://www.nccgroup.trust/us/about-us/newsroom-and-events/blog/2018/november/smart-contract-insecurity-bad-arithmetic/\n\nimport \"../node_modules/openzeppelin-solidity/contracts/math/SafeMath.sol\";\n\n/************************************************** */\n/* FlightSuretyApp Smart Contract                      */\n/************************************************** */\ncontract FlightSuretyApp {\n    using SafeMath for uint256; // Allow SafeMath functions to be called for all uint256 types (similar to \"prototype\" in Javascript)\n\n    FlightSuretyData dataContract;\n    /********************************************************************************************/\n    /*                                       DATA VARIABLES                                     */\n    /********************************************************************************************/\n\n    // Flight status codees\n    uint8 private constant STATUS_CODE_UNKNOWN = 0;\n    uint8 private constant STATUS_CODE_ON_TIME = 10;\n    uint8 private constant STATUS_CODE_LATE_AIRLINE = 20;\n    uint8 private constant STATUS_CODE_LATE_WEATHER = 30;\n    uint8 private constant STATUS_CODE_LATE_TECHNICAL = 40;\n    uint8 private constant STATUS_CODE_LATE_OTHER = 50;\n\n    address private contractOwner;\n\n    bool private contractIsOperational;\n\n    uint8 private constant AIRLINES_COUNT_TO_REQUIRE_CONSENSUS = 4;\n    address[] private uniqueVoters;\n    // SafeMath does not support division, so I will trick it with inverse threshold for consensus\n    // Here if you want to set 50% of voters as consensus, you need to set:\n    // totalVoterConsensus = 1\n    // uniqueVoterConsensus = 2\n    // The percentage of voters required to consensus is: totalVoterConsensus / uniqueVotersConsensus\n    // Hence in our case it is 50%.\n    // Now, if you want to set another threshold, like 60%:\n    // totalVoterConsensus = 3;\n    // uniqueVoterConsensus = 5;\n    // But what you would like to have in prod is the method exposed by the contract to modify these...\n    uint8 private totalVoterConsensus;\n    uint8 private uniqueVoterConsensus;\n    event ConsensusMultipliersUpdate(uint8 oldNumerator, uint8 oldDenominator, uint8 newNumerator, uint8 newDenominator);\n\n    uint private registrationFee;\n    event RegistrationFeeUpdate(uint oldFee, uint newFee);\n\n    uint private insuranceCap;\n    event InsuranceCapUpdate(uint oldCap, uint newCap);\n\n    uint8 private insurancePremiumNumerator;\n    uint8 private insurancePremiumDenominator;\n    event InsuranceMultipliersUpdate(uint8 oldNumerator, uint8 oldDenominator, uint8 newNumerator, uint8 newDenominator);\n\n    event VoteCounted(bool isConsensusReached, uint voteCount, uint totalCount);\n    event RegistrationFeePaid(address airlineAddress, uint fee);\n    event AirlineRegistered(address airlineAddress);\n\n    modifier verifyIsOperational()\n    {\n        require(contractIsOperational == true, \"Contract is currently not operational\");\n        _;\n    }\n\n    modifier verifyCallerIs(address _address)\n    {\n        require(msg.sender == _address, \"Current caller can not invoke this operation.\");\n        _;\n    }\n\n    modifier verifyCallerIsRegisteredAirline()\n    {\n        // Below call will fail, b/c dataContract.getAirline has modifies, that checks if the airline exists\n        (address _address, uint id, bool isVoter) = dataContract.getAirline(msg.sender);\n        _;\n    }\n\n    modifier verifyHasAlreadyVoted()\n    {\n        uint airlinesCount = dataContract.getAirlinesCount();\n        if(airlinesCount >= AIRLINES_COUNT_TO_REQUIRE_CONSENSUS) {\n            bool hasAlreadyVoted = false;\n            for(uint i = 0; i < uniqueVoters.length; i++){\n                if(uniqueVoters[i] == msg.sender){\n                    hasAlreadyVoted = true;\n                }\n            }\n            require(hasAlreadyVoted == false, \"The caller has already voted\");\n        }\n        _;\n    }\n\n    modifier verifyHasPaidRegistrationFee()\n    {\n        (address _address, uint id, bool isVoter) = dataContract.getAirline(msg.sender);\n        require(isVoter == true, \"Airline has to pay registration fee to be able to vote\");\n        _;\n    }\n\n    modifier hasPaidEnough(uint requiredAmount)\n    {\n        require(msg.value >= requiredAmount, \"The message value is less than required amount\");\n        _;\n    }\n\n    modifier returnChangeForExcessToSender(uint requiredAmount)\n    {\n        _;\n        uint change = msg.value.sub(requiredAmount);\n        msg.sender.transfer(change);\n    }\n\n    modifier verifyValueLessThanOrEqualToCap(uint cap)\n    {\n        require(msg.value <= cap, \"The value exceeds the current cap\");\n        _;\n    }\n\n    modifier verifyNumeratorIsLessOrEqualToDenominator(uint8 numerator, uint8 denominator)\n    {\n        require(numerator <= denominator, \"Consensus will never be reached, b/c you want it more than 100%\");\n        _;\n    }\n\n    constructor\n    (address dataContractAddress)\n    public\n    {\n        contractOwner = msg.sender;\n\n        contractIsOperational = true;\n\n        uniqueVoters = new address[](0);\n\n        registrationFee = 10 ether;\n\n        insuranceCap = 1 ether;\n\n        totalVoterConsensus = 1;\n\n        uniqueVoterConsensus = 2;\n\n        insurancePremiumNumerator = 3;\n\n        insurancePremiumDenominator = 2;\n\n        dataContract = FlightSuretyData(dataContractAddress);\n    }\n\n    // Contract Management Resource\n    function getOperationalStatus\n    ()\n    public\n    view\n    returns(bool)\n    {\n        return contractIsOperational;\n    }\n\n    function setOperationalStatus\n    (bool status)\n    verifyCallerIs(contractOwner)\n    public\n    {\n        contractIsOperational = status;\n    }\n\n    function getRegistrationFee\n    ()\n    verifyIsOperational\n    public\n    view\n    returns (uint)\n    {\n        return registrationFee;\n    }\n\n    function setRegistrationFee\n    (uint _fee)\n    verifyIsOperational\n    verifyCallerIs(contractOwner)\n    public\n    {\n        uint oldFee = registrationFee;\n        registrationFee = _fee;\n        emit RegistrationFeeUpdate(oldFee, registrationFee);\n    }\n\n    function getInsuranceCap\n    ()\n    verifyIsOperational\n    public\n    view\n    returns (uint)\n    {\n        return insuranceCap;\n    }\n\n    function setInsuranceCap\n    (uint _cap)\n    verifyIsOperational\n    verifyCallerIs(contractOwner)\n    public\n    {\n        uint oldCap = insuranceCap;\n        insuranceCap = _cap;\n        emit InsuranceCapUpdate(oldCap, insuranceCap);\n    }\n\n    function setConsensusMultipliers\n    (uint8 numerator, uint8 denominator)\n    verifyIsOperational\n    verifyCallerIs(contractOwner)\n    verifyNumeratorIsLessOrEqualToDenominator(numerator, denominator)\n    public\n    {\n        uint8 oldNum = totalVoterConsensus;\n        uint8 oldDenom = uniqueVoterConsensus;\n        uniqueVoterConsensus = denominator;\n        totalVoterConsensus = numerator;\n        emit ConsensusMultipliersUpdate(oldNum, oldDenom, totalVoterConsensus, uniqueVoterConsensus);\n    }\n\n    function getConsensusMultipliers\n    ()\n    verifyIsOperational\n    public\n    view\n    returns (uint8 numerator, uint8 denominator)\n    {\n        return (totalVoterConsensus, uniqueVoterConsensus);\n    }\n\n    // Airline Resource\n    function payRegistrationFee\n    ()\n    verifyIsOperational\n    verifyCallerIsRegisteredAirline\n    hasPaidEnough(registrationFee)\n    returnChangeForExcessToSender(registrationFee)\n    public\n    payable\n    {\n        address(dataContract).transfer(msg.value);\n        dataContract.setAirlineIsVoter(msg.sender, true);\n        emit RegistrationFeePaid(msg.sender, registrationFee);\n    }\n\n    function registerAirline\n    (address _address)\n    verifyIsOperational\n    verifyCallerIsRegisteredAirline\n    verifyHasPaidRegistrationFee\n    verifyHasAlreadyVoted\n    public\n    {\n        uint airlinesCount = dataContract.getAirlinesCount();\n        if(airlinesCount < AIRLINES_COUNT_TO_REQUIRE_CONSENSUS) {\n            dataContract.createAirline(_address, false);\n            emit AirlineRegistered(_address);\n        }\n        else {\n            uniqueVoters.push(msg.sender);\n            if(uniqueVoters.length.mul(uniqueVoterConsensus) < airlinesCount.mul(totalVoterConsensus)){\n                emit VoteCounted(false, uniqueVoters.length, airlinesCount);\n            }\n            else {\n                dataContract.createAirline(_address, false);\n                uint newAirlinesCount = dataContract.getAirlinesCount();\n                emit VoteCounted(true, uniqueVoters.length, newAirlinesCount);\n                uniqueVoters = new address[](0);\n                emit AirlineRegistered(_address);\n            }\n        }\n    }\n\n    function getAirline\n    (address _address)\n    verifyIsOperational\n    public\n    view\n    returns (address airlineAddress, uint id, bool isVoter)\n    {\n        return dataContract.getAirline(_address);\n    }\n\n    // Insurance Resource\n    function setInsurancePremiumMultiplier\n    (uint8 numerator, uint8 denominator)\n    verifyIsOperational\n    verifyCallerIs(contractOwner)\n    public\n    {\n        uint8 oldNum = insurancePremiumNumerator;\n        uint8 oldDenom = insurancePremiumDenominator;\n        insurancePremiumDenominator = denominator;\n        insurancePremiumNumerator = numerator;\n        emit InsuranceMultipliersUpdate(oldNum, oldDenom, insurancePremiumNumerator, insurancePremiumDenominator);\n    }\n\n    function getInsurancePremiumMultiplier\n    ()\n    verifyIsOperational\n    public\n    view\n    returns (uint8 numerator, uint8 denominator)\n    {\n        return (insurancePremiumNumerator, insurancePremiumDenominator);\n    }\n\n    function buyInsurance\n    (uint _flightId, uint _amountPaid)\n    verifyIsOperational\n    verifyValueLessThanOrEqualToCap(insuranceCap)\n    public\n    payable\n    {\n        dataContract.createInsurance(_flightId, _amountPaid, msg.sender);\n        address(this).transfer(msg.value);\n        address(dataContract).transfer(msg.value);\n    }\n\n    function getInsurance\n    (uint _id)\n    verifyIsOperational\n    public\n    view\n    returns (uint id, uint flightId, string memory state, uint amountPaid, address owner)\n    {\n        return dataContract.getInsurance(_id);\n    }\n\n    //Flight Resource\n    function registerFlight\n    (string flight, uint _departureTimestamp, address _airlineAddress)\n    verifyIsOperational\n    public\n    {\n        dataContract.createFlight(flight, _departureTimestamp, _airlineAddress);\n    }\n\n    function getFlight\n    (uint _id)\n    verifyIsOperational\n    public\n    view\n    returns (uint id, string flight, bytes32 key, address airlineAddress, string memory state, uint departureTimestamp, uint8 departureStatusCode, uint updated)\n    {\n        return dataContract.getFlight(_id);\n    }\n\n    function processFlightStatus\n    (address airline, string flight, uint256 timestamp, uint8 statusCode)\n    public\n    {\n        bytes32 flightKey = dataContract.createFlightKey(airline, flight, timestamp);\n        (uint flightId) = dataContract.getFlightIdByKey(flightKey);\n        dataContract.setDepartureStatusCode(flightId, statusCode);\n        if(statusCode != STATUS_CODE_UNKNOWN) {\n            dataContract.setUnavailableForInsurance(flightId);\n        }\n        if(statusCode == STATUS_CODE_LATE_AIRLINE) {\n            uint[] memory insurancesToCredit = dataContract.getInsurancesByFlight(flightId);\n            for(uint i = 0; i < insurancesToCredit.length; i++){\n                (, , , uint amountPaid, ) = dataContract.getInsurance(insurancesToCredit[i]);\n                dataContract.creditInsurance(insurancesToCredit[i], amountPaid.mul(insurancePremiumNumerator).div(insurancePremiumDenominator));\n            }\n        }\n    }\n\n\n    // Generate a request for oracles to fetch flight information\n    function fetchFlightStatus\n    (address airline, string flight, uint256 timestamp)\n    verifyIsOperational\n    public\n    {\n        uint8 index = getRandomIndex(msg.sender);\n\n        // Generate a unique key for storing the request\n        bytes32 key = keccak256(abi.encodePacked(index, airline, flight, timestamp));\n        oracleResponses[key] = ResponseInfo(\n            {\n                requester: msg.sender,\n                isOpen: true\n            }\n        );\n\n        emit OracleRequest(index, airline, flight, timestamp);\n    }\n\n    function getCreditedAmount\n    (address _address)\n    verifyIsOperational\n    public\n    view\n    returns (uint)\n    {\n        return dataContract.getCreditedAmount(_address);\n    }\n\n    function withdrawCreditedAmount\n    (uint _amountToWithdraw, address _address)\n    verifyIsOperational\n    public\n    payable\n    {\n        dataContract.withdrawCreditedAmount(_amountToWithdraw, _address);\n    }\n\n\n// region ORACLE MANAGEMENT\n\n    // Incremented to add pseudo-randomness at various points\n    uint8 private nonce = 0;    \n\n    // Fee to be paid when registering oracle\n    uint256 public constant REGISTRATION_FEE = 1 ether;\n\n    // Number of oracles that must respond for valid status\n    uint256 private constant MIN_RESPONSES = 3;\n\n\n    struct Oracle {\n        bool isRegistered;\n        uint8[3] indexes;        \n    }\n\n    // Track all registered oracles\n    mapping(address => Oracle) private oracles;\n\n    // Model for responses from oracles\n    struct ResponseInfo {\n        address requester;                              // Account that requested status\n        bool isOpen;                                    // If open, oracle responses are accepted\n        mapping(uint8 => address[]) responses;          // Mapping key is the status code reported\n                                                        // This lets us group responses and identify\n                                                        // the response that majority of the oracles\n    }\n\n    // Track all oracle responses\n    // Key = hash(index, flight, timestamp)\n    mapping(bytes32 => ResponseInfo) private oracleResponses;\n\n    // Event fired each time an oracle submits a response\n    event FlightStatusInfo(address airline, string flight, uint256 timestamp, uint8 status);\n\n    event OracleReport(address airline, string flight, uint256 timestamp, uint8 status);\n\n    // Event fired when flight status request is submitted\n    // Oracles track this and if they have a matching index\n    // they fetch data and submit a response\n    event OracleRequest(uint8 index, address airline, string flight, uint256 timestamp);\n\n\n    // Register an oracle with the contract\n    function registerOracle\n    ()\n    external\n    payable\n    verifyIsOperational\n    {\n        // Require registration fee\n        require(msg.value >= REGISTRATION_FEE, \"Registration fee is required\");\n\n        uint8[3] memory indexes = generateIndexes(msg.sender);\n\n        oracles[msg.sender] = Oracle({\n                                        isRegistered: true,\n                                        indexes: indexes\n                                    });\n    }\n\n    function getMyIndexes\n    ()\n    view\n    external\n    verifyIsOperational\n    returns(uint8[3])\n    {\n        require(oracles[msg.sender].isRegistered, \"Not registered as an oracle\");\n\n        return oracles[msg.sender].indexes;\n    }\n\n\n    // Called by oracle when a response is available to an outstanding request\n    // For the response to be accepted, there must be a pending request that is open\n    // and matches one of the three Indexes randomly assigned to the oracle at the\n    // time of registration (i.e. uninvited oracles are not welcome)\n    function submitOracleResponse\n    (uint8 index, address airline, string flight, uint256 timestamp, uint8 statusCode)\n    external\n    verifyIsOperational\n    {\n        require((oracles[msg.sender].indexes[0] == index) || (oracles[msg.sender].indexes[1] == index) || (oracles[msg.sender].indexes[2] == index), \"Index does not match oracle request\");\n\n\n        bytes32 key = keccak256(abi.encodePacked(index, airline, flight, timestamp)); \n        require(oracleResponses[key].isOpen, \"Flight or timestamp do not match oracle request\");\n\n        oracleResponses[key].responses[statusCode].push(msg.sender);\n\n        // Information isn't considered verified until at least MIN_RESPONSES\n        // oracles respond with the *** same *** information\n        emit OracleReport(airline, flight, timestamp, statusCode);\n        if (oracleResponses[key].responses[statusCode].length == MIN_RESPONSES) {\n\n            emit FlightStatusInfo(airline, flight, timestamp, statusCode);\n\n            // Handle flight status as appropriate\n            processFlightStatus(airline, flight, timestamp, statusCode);\n        }\n    }\n\n    // Returns array of three non-duplicating integers from 0-9\n    function generateIndexes\n    (address account)\n    internal\n    returns(uint8[3])\n    {\n        uint8[3] memory indexes;\n        indexes[0] = getRandomIndex(account);\n        \n        indexes[1] = indexes[0];\n        while(indexes[1] == indexes[0]) {\n            indexes[1] = getRandomIndex(account);\n        }\n\n        indexes[2] = indexes[1];\n        while((indexes[2] == indexes[0]) || (indexes[2] == indexes[1])) {\n            indexes[2] = getRandomIndex(account);\n        }\n\n        return indexes;\n    }\n\n    // Returns array of three non-duplicating integers from 0-9\n    function getRandomIndex\n    (address account)\n    internal\n    returns (uint8)\n    {\n        uint8 maxValue = 10;\n\n        // Pseudo random number...the incrementing nonce adds variation\n        uint8 random = uint8(uint256(keccak256(abi.encodePacked(blockhash(block.number - nonce++), account))) % maxValue);\n\n        if (nonce > 250) {\n            nonce = 0;  // Can only fetch blockhashes for last 256 blocks so we adapt\n        }\n\n        return random;\n    }\n\n// endregion\n    /**\n    * @dev Fallback function for funding smart contract.\n    *\n    */\n    function\n    ()\n    external\n    payable\n    {\n\n    }\n}\n\ncontract FlightSuretyData {\n    function setIsAuthorizedCaller(address _address, bool isAuthorized) public;\n    function createAirline(address airlineAddress, bool isVoter) public;\n    function addFunds(uint _funds) public;\n    function getAirlinesCount() public view returns (uint);\n    function createInsurance(uint _flightId, uint _amountPaid, address _owner) public;\n    function getInsurance(uint _id) public view returns (uint id, uint flightId, string memory state, uint amountPaid, address owner);\n    function createFlight(string _code, uint _departureTimestamp, address _airlineAddress) public;\n    function getFlight(uint _id) public view returns (uint id, string flight, bytes32 key, address airlineAddress, string memory state, uint departureTimestamp, uint8 departureStatusCode, uint updated);\n    function getInsurancesByFlight(uint _flightId) public view returns (uint[]);\n    function creditInsurance(uint _id, uint _amountToCredit) public;\n    function getAirline(address _address) public view returns (address, uint, bool);\n    function setAirlineIsVoter(address _address, bool isVoter) public;\n    function setDepartureStatusCode(uint _flightId, uint8 _statusCode) public;\n    function setUnavailableForInsurance(uint flightId) public;\n    function getFlightIdByKey(bytes32 key) public view returns (uint);\n    function createFlightKey(address _airlineAddress, string memory flightCode, uint timestamp) public returns (bytes32);\n    function withdrawCreditedAmount(uint _amountToWithdraw, address _address) public payable;\n    function getCreditedAmount(address _address) public view returns (uint);\n}\n",
  "sourcePath": "/home/cryptokowsik/UdacityBlockchain/flight-surety/contracts/FlightSuretyApp.sol",
  "compiler": {
    "name": "solc",
    "version": "0.4.24+commit.e67f0147.Emscripten.clang"
  },
  "schemaVersion": "3.1.0",
  "updatedAt": "2020-05-19T15:29:06.486Z",
  "networkType": "ethereum",
  "devdoc": {
    "methods": {}
  },
  "userdoc": {
    "methods": {}
  }
}